{
  "_format": "hh-sol-artifact-1",
  "contractName": "KingKongToken",
  "sourceName": "contracts/KingKongToken.sol",
  "abi": [
    {
      "anonymous": false,
      "inputs": [
        {
          "indexed": true,
          "internalType": "address",
          "name": "owner",
          "type": "address"
        },
        {
          "indexed": true,
          "internalType": "address",
          "name": "spender",
          "type": "address"
        },
        {
          "indexed": false,
          "internalType": "uint256",
          "name": "value",
          "type": "uint256"
        }
      ],
      "name": "Approval",
      "type": "event"
    },
    {
      "anonymous": false,
      "inputs": [
        {
          "indexed": true,
          "internalType": "address",
          "name": "delegator",
          "type": "address"
        },
        {
          "indexed": true,
          "internalType": "address",
          "name": "fromDelegate",
          "type": "address"
        },
        {
          "indexed": true,
          "internalType": "address",
          "name": "toDelegate",
          "type": "address"
        }
      ],
      "name": "DelegateChanged",
      "type": "event"
    },
    {
      "anonymous": false,
      "inputs": [
        {
          "indexed": true,
          "internalType": "address",
          "name": "delegate",
          "type": "address"
        },
        {
          "indexed": false,
          "internalType": "uint256",
          "name": "previousBalance",
          "type": "uint256"
        },
        {
          "indexed": false,
          "internalType": "uint256",
          "name": "newBalance",
          "type": "uint256"
        }
      ],
      "name": "DelegateVotesChanged",
      "type": "event"
    },
    {
      "anonymous": false,
      "inputs": [
        {
          "indexed": true,
          "internalType": "address",
          "name": "previousOwner",
          "type": "address"
        },
        {
          "indexed": true,
          "internalType": "address",
          "name": "newOwner",
          "type": "address"
        }
      ],
      "name": "OwnershipTransferred",
      "type": "event"
    },
    {
      "anonymous": false,
      "inputs": [
        {
          "indexed": true,
          "internalType": "address",
          "name": "from",
          "type": "address"
        },
        {
          "indexed": true,
          "internalType": "address",
          "name": "to",
          "type": "address"
        },
        {
          "indexed": false,
          "internalType": "uint256",
          "name": "value",
          "type": "uint256"
        }
      ],
      "name": "Transfer",
      "type": "event"
    },
    {
      "inputs": [],
      "name": "DELEGATION_TYPEHASH",
      "outputs": [
        {
          "internalType": "bytes32",
          "name": "",
          "type": "bytes32"
        }
      ],
      "stateMutability": "view",
      "type": "function"
    },
    {
      "inputs": [],
      "name": "DOMAIN_TYPEHASH",
      "outputs": [
        {
          "internalType": "bytes32",
          "name": "",
          "type": "bytes32"
        }
      ],
      "stateMutability": "view",
      "type": "function"
    },
    {
      "inputs": [],
      "name": "TOTAL_SUPPLY_LIMIT",
      "outputs": [
        {
          "internalType": "uint256",
          "name": "",
          "type": "uint256"
        }
      ],
      "stateMutability": "view",
      "type": "function"
    },
    {
      "inputs": [
        {
          "internalType": "address",
          "name": "owner",
          "type": "address"
        },
        {
          "internalType": "address",
          "name": "spender",
          "type": "address"
        }
      ],
      "name": "allowance",
      "outputs": [
        {
          "internalType": "uint256",
          "name": "",
          "type": "uint256"
        }
      ],
      "stateMutability": "view",
      "type": "function"
    },
    {
      "inputs": [
        {
          "internalType": "address",
          "name": "spender",
          "type": "address"
        },
        {
          "internalType": "uint256",
          "name": "amount",
          "type": "uint256"
        }
      ],
      "name": "approve",
      "outputs": [
        {
          "internalType": "bool",
          "name": "",
          "type": "bool"
        }
      ],
      "stateMutability": "nonpayable",
      "type": "function"
    },
    {
      "inputs": [
        {
          "internalType": "address",
          "name": "account",
          "type": "address"
        }
      ],
      "name": "balanceOf",
      "outputs": [
        {
          "internalType": "uint256",
          "name": "",
          "type": "uint256"
        }
      ],
      "stateMutability": "view",
      "type": "function"
    },
    {
      "inputs": [
        {
          "internalType": "address",
          "name": "",
          "type": "address"
        },
        {
          "internalType": "uint32",
          "name": "",
          "type": "uint32"
        }
      ],
      "name": "checkpoints",
      "outputs": [
        {
          "internalType": "uint32",
          "name": "fromBlock",
          "type": "uint32"
        },
        {
          "internalType": "uint256",
          "name": "votes",
          "type": "uint256"
        }
      ],
      "stateMutability": "view",
      "type": "function"
    },
    {
      "inputs": [],
      "name": "decimals",
      "outputs": [
        {
          "internalType": "uint8",
          "name": "",
          "type": "uint8"
        }
      ],
      "stateMutability": "view",
      "type": "function"
    },
    {
      "inputs": [
        {
          "internalType": "address",
          "name": "spender",
          "type": "address"
        },
        {
          "internalType": "uint256",
          "name": "subtractedValue",
          "type": "uint256"
        }
      ],
      "name": "decreaseAllowance",
      "outputs": [
        {
          "internalType": "bool",
          "name": "",
          "type": "bool"
        }
      ],
      "stateMutability": "nonpayable",
      "type": "function"
    },
    {
      "inputs": [
        {
          "internalType": "address",
          "name": "delegatee",
          "type": "address"
        }
      ],
      "name": "delegate",
      "outputs": [],
      "stateMutability": "nonpayable",
      "type": "function"
    },
    {
      "inputs": [
        {
          "internalType": "address",
          "name": "delegatee",
          "type": "address"
        },
        {
          "internalType": "uint256",
          "name": "nonce",
          "type": "uint256"
        },
        {
          "internalType": "uint256",
          "name": "expiry",
          "type": "uint256"
        },
        {
          "internalType": "uint8",
          "name": "v",
          "type": "uint8"
        },
        {
          "internalType": "bytes32",
          "name": "r",
          "type": "bytes32"
        },
        {
          "internalType": "bytes32",
          "name": "s",
          "type": "bytes32"
        }
      ],
      "name": "delegateBySig",
      "outputs": [],
      "stateMutability": "nonpayable",
      "type": "function"
    },
    {
      "inputs": [
        {
          "internalType": "address",
          "name": "delegator",
          "type": "address"
        }
      ],
      "name": "delegates",
      "outputs": [
        {
          "internalType": "address",
          "name": "",
          "type": "address"
        }
      ],
      "stateMutability": "view",
      "type": "function"
    },
    {
      "inputs": [
        {
          "internalType": "address",
          "name": "account",
          "type": "address"
        }
      ],
      "name": "getCurrentVotes",
      "outputs": [
        {
          "internalType": "uint256",
          "name": "",
          "type": "uint256"
        }
      ],
      "stateMutability": "view",
      "type": "function"
    },
    {
      "inputs": [
        {
          "internalType": "address",
          "name": "account",
          "type": "address"
        },
        {
          "internalType": "uint256",
          "name": "blockNumber",
          "type": "uint256"
        }
      ],
      "name": "getPriorVotes",
      "outputs": [
        {
          "internalType": "uint256",
          "name": "",
          "type": "uint256"
        }
      ],
      "stateMutability": "view",
      "type": "function"
    },
    {
      "inputs": [
        {
          "internalType": "address",
          "name": "spender",
          "type": "address"
        },
        {
          "internalType": "uint256",
          "name": "addedValue",
          "type": "uint256"
        }
      ],
      "name": "increaseAllowance",
      "outputs": [
        {
          "internalType": "bool",
          "name": "",
          "type": "bool"
        }
      ],
      "stateMutability": "nonpayable",
      "type": "function"
    },
    {
      "inputs": [
        {
          "internalType": "address",
          "name": "_to",
          "type": "address"
        },
        {
          "internalType": "uint256",
          "name": "_amount",
          "type": "uint256"
        }
      ],
      "name": "mint",
      "outputs": [],
      "stateMutability": "nonpayable",
      "type": "function"
    },
    {
      "inputs": [],
      "name": "name",
      "outputs": [
        {
          "internalType": "string",
          "name": "",
          "type": "string"
        }
      ],
      "stateMutability": "view",
      "type": "function"
    },
    {
      "inputs": [
        {
          "internalType": "address",
          "name": "",
          "type": "address"
        }
      ],
      "name": "nonces",
      "outputs": [
        {
          "internalType": "uint256",
          "name": "",
          "type": "uint256"
        }
      ],
      "stateMutability": "view",
      "type": "function"
    },
    {
      "inputs": [
        {
          "internalType": "address",
          "name": "",
          "type": "address"
        }
      ],
      "name": "numCheckpoints",
      "outputs": [
        {
          "internalType": "uint32",
          "name": "",
          "type": "uint32"
        }
      ],
      "stateMutability": "view",
      "type": "function"
    },
    {
      "inputs": [],
      "name": "owner",
      "outputs": [
        {
          "internalType": "address",
          "name": "",
          "type": "address"
        }
      ],
      "stateMutability": "view",
      "type": "function"
    },
    {
      "inputs": [],
      "name": "renounceOwnership",
      "outputs": [],
      "stateMutability": "nonpayable",
      "type": "function"
    },
    {
      "inputs": [],
      "name": "symbol",
      "outputs": [
        {
          "internalType": "string",
          "name": "",
          "type": "string"
        }
      ],
      "stateMutability": "view",
      "type": "function"
    },
    {
      "inputs": [],
      "name": "totalSupply",
      "outputs": [
        {
          "internalType": "uint256",
          "name": "",
          "type": "uint256"
        }
      ],
      "stateMutability": "view",
      "type": "function"
    },
    {
      "inputs": [
        {
          "internalType": "address",
          "name": "recipient",
          "type": "address"
        },
        {
          "internalType": "uint256",
          "name": "amount",
          "type": "uint256"
        }
      ],
      "name": "transfer",
      "outputs": [
        {
          "internalType": "bool",
          "name": "",
          "type": "bool"
        }
      ],
      "stateMutability": "nonpayable",
      "type": "function"
    },
    {
      "inputs": [
        {
          "internalType": "address",
          "name": "sender",
          "type": "address"
        },
        {
          "internalType": "address",
          "name": "recipient",
          "type": "address"
        },
        {
          "internalType": "uint256",
          "name": "amount",
          "type": "uint256"
        }
      ],
      "name": "transferFrom",
      "outputs": [
        {
          "internalType": "bool",
          "name": "",
          "type": "bool"
        }
      ],
      "stateMutability": "nonpayable",
      "type": "function"
    },
    {
      "inputs": [
        {
          "internalType": "address",
          "name": "newOwner",
          "type": "address"
        }
      ],
      "name": "transferOwnership",
      "outputs": [],
      "stateMutability": "nonpayable",
      "type": "function"
    }
  ],
  "bytecode": "0x60806040523480156200001157600080fd5b506040518060400160405280600d81526020016c25b4b733a5b7b733aa37b5b2b760991b8152506040518060400160405280600381526020016212d2d560ea1b81525081600390805190602001906200006c929190620000fe565b50805162000082906004906020840190620000fe565b50506005805460ff191660121790555060006200009e620000fa565b60058054610100600160a81b0319166101006001600160a01b03841690810291909117909155604051919250906000907f8be0079c531659141344cd1fd0a4f28419497f9722a3daafe3b4186f6b6457e0908290a3506200019a565b3390565b828054600181600116156101000203166002900490600052602060002090601f016020900481019282601f106200014157805160ff191683800117855562000171565b8280016001018555821562000171579182015b828111156200017157825182559160200191906001019062000154565b506200017f92915062000183565b5090565b5b808211156200017f576000815560010162000184565b611bb980620001aa6000396000f3fe608060405234801561001057600080fd5b506004361061018e5760003560e01c8063782d6fe1116100de578063b4b5ea5711610097578063dd62ed3e11610071578063dd62ed3e14610524578063e7a324dc14610552578063f1127ed81461055a578063f2fde38b146105ac5761018e565b8063b4b5ea57146104af578063c3cda520146104d5578063cc3bde3d1461051c5761018e565b8063782d6fe1146103f55780637ecebe00146104215780638da5cb5b1461044757806395d89b411461044f578063a457c2d714610457578063a9059cbb146104835761018e565b8063395093511161014b5780635c19a95c116101255780635c19a95c146103625780636fcfff451461038857806370a08231146103c7578063715018a6146103ed5761018e565b806339509351146102c657806340c10f19146102f2578063587cde1e146103205761018e565b806306fdde0314610193578063095ea7b31461021057806318160ddd1461025057806320606b701461026a57806323b872dd14610272578063313ce567146102a8575b600080fd5b61019b6105d2565b6040805160208082528351818301528351919283929083019185019080838360005b838110156101d55781810151838201526020016101bd565b50505050905090810190601f1680156102025780820380516001836020036101000a031916815260200191505b509250505060405180910390f35b61023c6004803603604081101561022657600080fd5b506001600160a01b038135169060200135610668565b604080519115158252519081900360200190f35b610258610686565b60408051918252519081900360200190f35b61025861068c565b61023c6004803603606081101561028857600080fd5b506001600160a01b038135811691602081013590911690604001356106b0565b6102b0610737565b6040805160ff9092168252519081900360200190f35b61023c600480360360408110156102dc57600080fd5b506001600160a01b038135169060200135610740565b61031e6004803603604081101561030857600080fd5b506001600160a01b03813516906020013561078e565b005b6103466004803603602081101561033657600080fd5b50356001600160a01b03166108b1565b604080516001600160a01b039092168252519081900360200190f35b61031e6004803603602081101561037857600080fd5b50356001600160a01b03166108cf565b6103ae6004803603602081101561039e57600080fd5b50356001600160a01b03166108dc565b6040805163ffffffff9092168252519081900360200190f35b610258600480360360208110156103dd57600080fd5b50356001600160a01b03166108f4565b61031e61090f565b6102586004803603604081101561040b57600080fd5b506001600160a01b0381351690602001356109d3565b6102586004803603602081101561043757600080fd5b50356001600160a01b0316610bdb565b610346610bed565b61019b610c01565b61023c6004803603604081101561046d57600080fd5b506001600160a01b038135169060200135610c62565b61023c6004803603604081101561049957600080fd5b506001600160a01b038135169060200135610cca565b610258600480360360208110156104c557600080fd5b50356001600160a01b0316610cde565b61031e600480360360c08110156104eb57600080fd5b506001600160a01b038135169060208101359060408101359060ff6060820135169060808101359060a00135610d42565b610258610fb5565b6102586004803603604081101561053a57600080fd5b506001600160a01b0381358116916020013516610fc4565b610258610fef565b61058c6004803603604081101561057057600080fd5b5080356001600160a01b0316906020013563ffffffff16611013565b6040805163ffffffff909316835260208301919091528051918290030190f35b61031e600480360360208110156105c257600080fd5b50356001600160a01b0316611040565b60038054604080516020601f600260001961010060018816150201909516949094049384018190048102820181019092528281526060939092909183018282801561065e5780601f106106335761010080835404028352916020019161065e565b820191906000526020600020905b81548152906001019060200180831161064157829003601f168201915b5050505050905090565b600061067c610675611160565b8484611164565b5060015b92915050565b60025490565b7f8cad95687ba82c2ce50e74f7b754645e5117c3a5bec8151c0726d5857980a86681565b60006106bd848484611250565b61072d846106c9611160565b61072885604051806060016040528060288152602001611a75602891396001600160a01b038a16600090815260016020526040812090610707611160565b6001600160a01b0316815260208101919091526040016000205491906113ab565b611164565b5060019392505050565b60055460ff1690565b600061067c61074d611160565b84610728856001600061075e611160565b6001600160a01b03908116825260208083019390935260409182016000908120918c168152925290205490611442565b610796611160565b6001600160a01b03166107a7610bed565b6001600160a01b031614610802576040805162461bcd60e51b815260206004820181905260248201527f4f776e61626c653a2063616c6c6572206973206e6f7420746865206f776e6572604482015290519081900360640190fd5b600061080c610686565b9050600061081a8284611442565b90506a52b7d2dcc80cd2e400000081111561087c576040805162461bcd60e51b815260206004820152601c60248201527f4b4b543a3a6d696e743a20746f74616c537570706c79206c696d697400000000604482015290519081900360640190fd5b610886848461149c565b6001600160a01b038085166000908152600660205260408120546108ab92168561158c565b50505050565b6001600160a01b039081166000908152600660205260409020541690565b6108d933826116ce565b50565b60086020526000908152604090205463ffffffff1681565b6001600160a01b031660009081526020819052604090205490565b610917611160565b6001600160a01b0316610928610bed565b6001600160a01b031614610983576040805162461bcd60e51b815260206004820181905260248201527f4f776e61626c653a2063616c6c6572206973206e6f7420746865206f776e6572604482015290519081900360640190fd5b60055460405160009161010090046001600160a01b0316907f8be0079c531659141344cd1fd0a4f28419497f9722a3daafe3b4186f6b6457e0908390a360058054610100600160a81b0319169055565b6000438210610a135760405162461bcd60e51b8152600401808060200182810382526026815260200180611a4f6026913960400191505060405180910390fd5b6001600160a01b03831660009081526008602052604090205463ffffffff1680610a41576000915050610680565b6001600160a01b038416600090815260076020908152604080832063ffffffff600019860181168552925290912054168310610ab0576001600160a01b03841660009081526007602090815260408083206000199490940163ffffffff16835292905220600101549050610680565b6001600160a01b038416600090815260076020908152604080832083805290915290205463ffffffff16831015610aeb576000915050610680565b600060001982015b8163ffffffff168163ffffffff161115610ba457600282820363ffffffff16048103610b1d611981565b506001600160a01b038716600090815260076020908152604080832063ffffffff808616855290835292819020815180830190925280549093168082526001909301549181019190915290871415610b7f576020015194506106809350505050565b805163ffffffff16871115610b9657819350610b9d565b6001820392505b5050610af3565b506001600160a01b038516600090815260076020908152604080832063ffffffff9094168352929052206001015491505092915050565b60096020526000908152604090205481565b60055461010090046001600160a01b031690565b60048054604080516020601f600260001961010060018816150201909516949094049384018190048102820181019092528281526060939092909183018282801561065e5780601f106106335761010080835404028352916020019161065e565b600061067c610c6f611160565b8461072885604051806060016040528060258152602001611b5f6025913960016000610c99611160565b6001600160a01b03908116825260208083019390935260409182016000908120918d168152925290205491906113ab565b600061067c610cd7611160565b8484611250565b6001600160a01b03811660009081526008602052604081205463ffffffff1680610d09576000610d3b565b6001600160a01b038316600090815260076020908152604080832063ffffffff60001986011684529091529020600101545b9392505050565b60007f8cad95687ba82c2ce50e74f7b754645e5117c3a5bec8151c0726d5857980a866610d6d6105d2565b80519060200120610d7c61175d565b60408051602080820195909552808201939093526060830191909152306080808401919091528151808403909101815260a0830182528051908401207fe48329057bfd03d55e49b547132e39cffd9c1820ad7b9d4c5307691425d15adf60c08401526001600160a01b038b1660e084015261010083018a90526101208084018a9052825180850390910181526101408401835280519085012061190160f01b6101608501526101628401829052610182808501829052835180860390910181526101a285018085528151918701919091206000918290526101c2860180865281905260ff8b166101e287015261020286018a90526102228601899052935192965090949293909260019261024280840193601f198301929081900390910190855afa158015610eaf573d6000803e3d6000fd5b5050604051601f1901519150506001600160a01b038116610f015760405162461bcd60e51b8152600401808060200182810382526025815260200180611b3a6025913960400191505060405180910390fd5b6001600160a01b03811660009081526009602052604090208054600181019091558914610f5f5760405162461bcd60e51b8152600401808060200182810382526021815260200180611b196021913960400191505060405180910390fd5b87421115610f9e5760405162461bcd60e51b8152600401808060200182810382526025815260200180611a2a6025913960400191505060405180910390fd5b610fa8818b6116ce565b505050505b505050505050565b6a52b7d2dcc80cd2e400000081565b6001600160a01b03918216600090815260016020908152604080832093909416825291909152205490565b7fe48329057bfd03d55e49b547132e39cffd9c1820ad7b9d4c5307691425d15adf81565b60076020908152600092835260408084209091529082529020805460019091015463ffffffff9091169082565b611048611160565b6001600160a01b0316611059610bed565b6001600160a01b0316146110b4576040805162461bcd60e51b815260206004820181905260248201527f4f776e61626c653a2063616c6c6572206973206e6f7420746865206f776e6572604482015290519081900360640190fd5b6001600160a01b0381166110f95760405162461bcd60e51b81526004018080602001828103825260268152602001806119bc6026913960400191505060405180910390fd5b6005546040516001600160a01b0380841692610100900416907f8be0079c531659141344cd1fd0a4f28419497f9722a3daafe3b4186f6b6457e090600090a3600580546001600160a01b0390921661010002610100600160a81b0319909216919091179055565b3390565b6001600160a01b0383166111a95760405162461bcd60e51b8152600401808060200182810382526024815260200180611ac26024913960400191505060405180910390fd5b6001600160a01b0382166111ee5760405162461bcd60e51b81526004018080602001828103825260228152602001806119e26022913960400191505060405180910390fd5b6001600160a01b03808416600081815260016020908152604080832094871680845294825291829020859055815185815291517f8c5be1e5ebec7d5bd14f71427d1e84f3dd0314c0f7b2291e5b200ac8c7c3b9259281900390910190a3505050565b6001600160a01b0383166112955760405162461bcd60e51b8152600401808060200182810382526025815260200180611a9d6025913960400191505060405180910390fd5b6001600160a01b0382166112da5760405162461bcd60e51b81526004018080602001828103825260238152602001806119996023913960400191505060405180910390fd5b6112e58383836116c9565b61132281604051806060016040528060268152602001611a04602691396001600160a01b03861660009081526020819052604090205491906113ab565b6001600160a01b0380851660009081526020819052604080822093909355908416815220546113519082611442565b6001600160a01b038084166000818152602081815260409182902094909455805185815290519193928716927fddf252ad1be2c89b69c2b068fc378daa952ba7f163c4a11628f55a4df523b3ef92918290030190a3505050565b6000818484111561143a5760405162461bcd60e51b81526004018080602001828103825283818151815260200191508051906020019080838360005b838110156113ff5781810151838201526020016113e7565b50505050905090810190601f16801561142c5780820380516001836020036101000a031916815260200191505b509250505060405180910390fd5b505050900390565b600082820183811015610d3b576040805162461bcd60e51b815260206004820152601b60248201527f536166654d6174683a206164646974696f6e206f766572666c6f770000000000604482015290519081900360640190fd5b6001600160a01b0382166114f7576040805162461bcd60e51b815260206004820152601f60248201527f45524332303a206d696e7420746f20746865207a65726f206164647265737300604482015290519081900360640190fd5b611503600083836116c9565b6002546115109082611442565b6002556001600160a01b0382166000908152602081905260409020546115369082611442565b6001600160a01b0383166000818152602081815260408083209490945583518581529351929391927fddf252ad1be2c89b69c2b068fc378daa952ba7f163c4a11628f55a4df523b3ef9281900390910190a35050565b816001600160a01b0316836001600160a01b0316141580156115ae5750600081115b156116c9576001600160a01b03831615611640576001600160a01b03831660009081526008602052604081205463ffffffff1690816115ee576000611620565b6001600160a01b038516600090815260076020908152604080832063ffffffff60001987011684529091529020600101545b9050600061162e8285611761565b905061163c868484846117be565b5050505b6001600160a01b038216156116c9576001600160a01b03821660009081526008602052604081205463ffffffff16908161167b5760006116ad565b6001600160a01b038416600090815260076020908152604080832063ffffffff60001987011684529091529020600101545b905060006116bb8285611442565b9050610fad858484846117be565b505050565b6001600160a01b03808316600090815260066020526040812054909116906116f5846108f4565b6001600160a01b0385811660008181526006602052604080822080546001600160a01b031916898616908117909155905194955093928616927f3134e8a2e6d97e929a7e54011ea5485d7d196dd5f0ba4d4ef95803e8e3fc257f9190a46108ab82848361158c565b4690565b6000828211156117b8576040805162461bcd60e51b815260206004820152601e60248201527f536166654d6174683a207375627472616374696f6e206f766572666c6f770000604482015290519081900360640190fd5b50900390565b60006117e243604051806060016040528060338152602001611ae660339139611923565b905060008463ffffffff1611801561182b57506001600160a01b038516600090815260076020908152604080832063ffffffff6000198901811685529252909120548282169116145b15611868576001600160a01b038516600090815260076020908152604080832063ffffffff600019890116845290915290206001018290556118d9565b60408051808201825263ffffffff808416825260208083018681526001600160a01b038a166000818152600784528681208b8616825284528681209551865490861663ffffffff19918216178755925160019687015590815260089092529390208054928801909116919092161790555b604080518481526020810184905281516001600160a01b038816927fdec2bacdd2f05b59de34da9b523dff8be42e5e38e818c82fdb0bae774387a724928290030190a25050505050565b60008164010000000084106119795760405162461bcd60e51b81526020600482018181528351602484015283519092839260449091019190850190808383600083156113ff5781810151838201526020016113e7565b509192915050565b60408051808201909152600080825260208201529056fe45524332303a207472616e7366657220746f20746865207a65726f20616464726573734f776e61626c653a206e6577206f776e657220697320746865207a65726f206164647265737345524332303a20617070726f766520746f20746865207a65726f206164647265737345524332303a207472616e7366657220616d6f756e7420657863656564732062616c616e63654b4b543a3a64656c656761746542795369673a207369676e617475726520657870697265644b4b543a3a6765745072696f72566f7465733a206e6f74207965742064657465726d696e656445524332303a207472616e7366657220616d6f756e74206578636565647320616c6c6f77616e636545524332303a207472616e736665722066726f6d20746865207a65726f206164647265737345524332303a20617070726f76652066726f6d20746865207a65726f20616464726573734b4b543a3a5f7772697465436865636b706f696e743a20626c6f636b206e756d626572206578636565647320333220626974734b4b543a3a64656c656761746542795369673a20696e76616c6964206e6f6e63654b4b543a3a64656c656761746542795369673a20696e76616c6964207369676e617475726545524332303a2064656372656173656420616c6c6f77616e63652062656c6f77207a65726fa2646970667358221220e1ad87cd20719eb45729c979ef5f071ab9a2b7f3ccfb4cd9bdd67cd61548f3c564736f6c634300060c0033",
  "linkReferences": {},
  "deployedLinkReferences": {}
}