{
  "_format": "hh-sol-artifact-1",
  "contractName": "UniswapV2Router02",
  "sourceName": "contracts/uniswapv2/UniswapV2Router02.sol",
  "abi": [
    {
      "inputs": [
        {
          "internalType": "address",
          "name": "_factory",
          "type": "address"
        },
        {
          "internalType": "address",
          "name": "_WETH",
          "type": "address"
        }
      ],
      "stateMutability": "nonpayable",
      "type": "constructor"
    },
    {
      "inputs": [],
      "name": "WETH",
      "outputs": [
        {
          "internalType": "address",
          "name": "",
          "type": "address"
        }
      ],
      "stateMutability": "view",
      "type": "function"
    },
    {
      "inputs": [
        {
          "internalType": "address",
          "name": "tokenA",
          "type": "address"
        },
        {
          "internalType": "address",
          "name": "tokenB",
          "type": "address"
        },
        {
          "internalType": "uint256",
          "name": "amountADesired",
          "type": "uint256"
        },
        {
          "internalType": "uint256",
          "name": "amountBDesired",
          "type": "uint256"
        },
        {
          "internalType": "uint256",
          "name": "amountAMin",
          "type": "uint256"
        },
        {
          "internalType": "uint256",
          "name": "amountBMin",
          "type": "uint256"
        },
        {
          "internalType": "address",
          "name": "to",
          "type": "address"
        },
        {
          "internalType": "uint256",
          "name": "deadline",
          "type": "uint256"
        }
      ],
      "name": "addLiquidity",
      "outputs": [
        {
          "internalType": "uint256",
          "name": "amountA",
          "type": "uint256"
        },
        {
          "internalType": "uint256",
          "name": "amountB",
          "type": "uint256"
        },
        {
          "internalType": "uint256",
          "name": "liquidity",
          "type": "uint256"
        }
      ],
      "stateMutability": "nonpayable",
      "type": "function"
    },
    {
      "inputs": [
        {
          "internalType": "address",
          "name": "token",
          "type": "address"
        },
        {
          "internalType": "uint256",
          "name": "amountTokenDesired",
          "type": "uint256"
        },
        {
          "internalType": "uint256",
          "name": "amountTokenMin",
          "type": "uint256"
        },
        {
          "internalType": "uint256",
          "name": "amountETHMin",
          "type": "uint256"
        },
        {
          "internalType": "address",
          "name": "to",
          "type": "address"
        },
        {
          "internalType": "uint256",
          "name": "deadline",
          "type": "uint256"
        }
      ],
      "name": "addLiquidityETH",
      "outputs": [
        {
          "internalType": "uint256",
          "name": "amountToken",
          "type": "uint256"
        },
        {
          "internalType": "uint256",
          "name": "amountETH",
          "type": "uint256"
        },
        {
          "internalType": "uint256",
          "name": "liquidity",
          "type": "uint256"
        }
      ],
      "stateMutability": "payable",
      "type": "function"
    },
    {
      "inputs": [],
      "name": "factory",
      "outputs": [
        {
          "internalType": "address",
          "name": "",
          "type": "address"
        }
      ],
      "stateMutability": "view",
      "type": "function"
    },
    {
      "inputs": [
        {
          "internalType": "uint256",
          "name": "amountOut",
          "type": "uint256"
        },
        {
          "internalType": "uint256",
          "name": "reserveIn",
          "type": "uint256"
        },
        {
          "internalType": "uint256",
          "name": "reserveOut",
          "type": "uint256"
        }
      ],
      "name": "getAmountIn",
      "outputs": [
        {
          "internalType": "uint256",
          "name": "amountIn",
          "type": "uint256"
        }
      ],
      "stateMutability": "pure",
      "type": "function"
    },
    {
      "inputs": [
        {
          "internalType": "uint256",
          "name": "amountIn",
          "type": "uint256"
        },
        {
          "internalType": "uint256",
          "name": "reserveIn",
          "type": "uint256"
        },
        {
          "internalType": "uint256",
          "name": "reserveOut",
          "type": "uint256"
        }
      ],
      "name": "getAmountOut",
      "outputs": [
        {
          "internalType": "uint256",
          "name": "amountOut",
          "type": "uint256"
        }
      ],
      "stateMutability": "pure",
      "type": "function"
    },
    {
      "inputs": [
        {
          "internalType": "uint256",
          "name": "amountOut",
          "type": "uint256"
        },
        {
          "internalType": "address[]",
          "name": "path",
          "type": "address[]"
        }
      ],
      "name": "getAmountsIn",
      "outputs": [
        {
          "internalType": "uint256[]",
          "name": "amounts",
          "type": "uint256[]"
        }
      ],
      "stateMutability": "view",
      "type": "function"
    },
    {
      "inputs": [
        {
          "internalType": "uint256",
          "name": "amountIn",
          "type": "uint256"
        },
        {
          "internalType": "address[]",
          "name": "path",
          "type": "address[]"
        }
      ],
      "name": "getAmountsOut",
      "outputs": [
        {
          "internalType": "uint256[]",
          "name": "amounts",
          "type": "uint256[]"
        }
      ],
      "stateMutability": "view",
      "type": "function"
    },
    {
      "inputs": [
        {
          "internalType": "address",
          "name": "tokenA",
          "type": "address"
        },
        {
          "internalType": "address",
          "name": "tokenB",
          "type": "address"
        }
      ],
      "name": "pairFor",
      "outputs": [
        {
          "internalType": "address",
          "name": "pair",
          "type": "address"
        }
      ],
      "stateMutability": "view",
      "type": "function"
    },
    {
      "inputs": [
        {
          "internalType": "uint256",
          "name": "amountA",
          "type": "uint256"
        },
        {
          "internalType": "uint256",
          "name": "reserveA",
          "type": "uint256"
        },
        {
          "internalType": "uint256",
          "name": "reserveB",
          "type": "uint256"
        }
      ],
      "name": "quote",
      "outputs": [
        {
          "internalType": "uint256",
          "name": "amountB",
          "type": "uint256"
        }
      ],
      "stateMutability": "pure",
      "type": "function"
    },
    {
      "inputs": [
        {
          "internalType": "address",
          "name": "tokenA",
          "type": "address"
        },
        {
          "internalType": "address",
          "name": "tokenB",
          "type": "address"
        },
        {
          "internalType": "uint256",
          "name": "liquidity",
          "type": "uint256"
        },
        {
          "internalType": "uint256",
          "name": "amountAMin",
          "type": "uint256"
        },
        {
          "internalType": "uint256",
          "name": "amountBMin",
          "type": "uint256"
        },
        {
          "internalType": "address",
          "name": "to",
          "type": "address"
        },
        {
          "internalType": "uint256",
          "name": "deadline",
          "type": "uint256"
        }
      ],
      "name": "removeLiquidity",
      "outputs": [
        {
          "internalType": "uint256",
          "name": "amountA",
          "type": "uint256"
        },
        {
          "internalType": "uint256",
          "name": "amountB",
          "type": "uint256"
        }
      ],
      "stateMutability": "nonpayable",
      "type": "function"
    },
    {
      "inputs": [
        {
          "internalType": "address",
          "name": "token",
          "type": "address"
        },
        {
          "internalType": "uint256",
          "name": "liquidity",
          "type": "uint256"
        },
        {
          "internalType": "uint256",
          "name": "amountTokenMin",
          "type": "uint256"
        },
        {
          "internalType": "uint256",
          "name": "amountETHMin",
          "type": "uint256"
        },
        {
          "internalType": "address",
          "name": "to",
          "type": "address"
        },
        {
          "internalType": "uint256",
          "name": "deadline",
          "type": "uint256"
        }
      ],
      "name": "removeLiquidityETH",
      "outputs": [
        {
          "internalType": "uint256",
          "name": "amountToken",
          "type": "uint256"
        },
        {
          "internalType": "uint256",
          "name": "amountETH",
          "type": "uint256"
        }
      ],
      "stateMutability": "nonpayable",
      "type": "function"
    },
    {
      "inputs": [
        {
          "internalType": "address",
          "name": "token",
          "type": "address"
        },
        {
          "internalType": "uint256",
          "name": "liquidity",
          "type": "uint256"
        },
        {
          "internalType": "uint256",
          "name": "amountTokenMin",
          "type": "uint256"
        },
        {
          "internalType": "uint256",
          "name": "amountETHMin",
          "type": "uint256"
        },
        {
          "internalType": "address",
          "name": "to",
          "type": "address"
        },
        {
          "internalType": "uint256",
          "name": "deadline",
          "type": "uint256"
        }
      ],
      "name": "removeLiquidityETHSupportingFeeOnTransferTokens",
      "outputs": [
        {
          "internalType": "uint256",
          "name": "amountETH",
          "type": "uint256"
        }
      ],
      "stateMutability": "nonpayable",
      "type": "function"
    },
    {
      "inputs": [
        {
          "internalType": "address",
          "name": "token",
          "type": "address"
        },
        {
          "internalType": "uint256",
          "name": "liquidity",
          "type": "uint256"
        },
        {
          "internalType": "uint256",
          "name": "amountTokenMin",
          "type": "uint256"
        },
        {
          "internalType": "uint256",
          "name": "amountETHMin",
          "type": "uint256"
        },
        {
          "internalType": "address",
          "name": "to",
          "type": "address"
        },
        {
          "internalType": "uint256",
          "name": "deadline",
          "type": "uint256"
        },
        {
          "internalType": "bool",
          "name": "approveMax",
          "type": "bool"
        },
        {
          "internalType": "uint8",
          "name": "v",
          "type": "uint8"
        },
        {
          "internalType": "bytes32",
          "name": "r",
          "type": "bytes32"
        },
        {
          "internalType": "bytes32",
          "name": "s",
          "type": "bytes32"
        }
      ],
      "name": "removeLiquidityETHWithPermit",
      "outputs": [
        {
          "internalType": "uint256",
          "name": "amountToken",
          "type": "uint256"
        },
        {
          "internalType": "uint256",
          "name": "amountETH",
          "type": "uint256"
        }
      ],
      "stateMutability": "nonpayable",
      "type": "function"
    },
    {
      "inputs": [
        {
          "internalType": "address",
          "name": "token",
          "type": "address"
        },
        {
          "internalType": "uint256",
          "name": "liquidity",
          "type": "uint256"
        },
        {
          "internalType": "uint256",
          "name": "amountTokenMin",
          "type": "uint256"
        },
        {
          "internalType": "uint256",
          "name": "amountETHMin",
          "type": "uint256"
        },
        {
          "internalType": "address",
          "name": "to",
          "type": "address"
        },
        {
          "internalType": "uint256",
          "name": "deadline",
          "type": "uint256"
        },
        {
          "internalType": "bool",
          "name": "approveMax",
          "type": "bool"
        },
        {
          "internalType": "uint8",
          "name": "v",
          "type": "uint8"
        },
        {
          "internalType": "bytes32",
          "name": "r",
          "type": "bytes32"
        },
        {
          "internalType": "bytes32",
          "name": "s",
          "type": "bytes32"
        }
      ],
      "name": "removeLiquidityETHWithPermitSupportingFeeOnTransferTokens",
      "outputs": [
        {
          "internalType": "uint256",
          "name": "amountETH",
          "type": "uint256"
        }
      ],
      "stateMutability": "nonpayable",
      "type": "function"
    },
    {
      "inputs": [
        {
          "internalType": "address",
          "name": "tokenA",
          "type": "address"
        },
        {
          "internalType": "address",
          "name": "tokenB",
          "type": "address"
        },
        {
          "internalType": "uint256",
          "name": "liquidity",
          "type": "uint256"
        },
        {
          "internalType": "uint256",
          "name": "amountAMin",
          "type": "uint256"
        },
        {
          "internalType": "uint256",
          "name": "amountBMin",
          "type": "uint256"
        },
        {
          "internalType": "address",
          "name": "to",
          "type": "address"
        },
        {
          "internalType": "uint256",
          "name": "deadline",
          "type": "uint256"
        },
        {
          "internalType": "bool",
          "name": "approveMax",
          "type": "bool"
        },
        {
          "internalType": "uint8",
          "name": "v",
          "type": "uint8"
        },
        {
          "internalType": "bytes32",
          "name": "r",
          "type": "bytes32"
        },
        {
          "internalType": "bytes32",
          "name": "s",
          "type": "bytes32"
        }
      ],
      "name": "removeLiquidityWithPermit",
      "outputs": [
        {
          "internalType": "uint256",
          "name": "amountA",
          "type": "uint256"
        },
        {
          "internalType": "uint256",
          "name": "amountB",
          "type": "uint256"
        }
      ],
      "stateMutability": "nonpayable",
      "type": "function"
    },
    {
      "inputs": [
        {
          "internalType": "uint256",
          "name": "amountOut",
          "type": "uint256"
        },
        {
          "internalType": "address[]",
          "name": "path",
          "type": "address[]"
        },
        {
          "internalType": "address",
          "name": "to",
          "type": "address"
        },
        {
          "internalType": "uint256",
          "name": "deadline",
          "type": "uint256"
        }
      ],
      "name": "swapETHForExactTokens",
      "outputs": [
        {
          "internalType": "uint256[]",
          "name": "amounts",
          "type": "uint256[]"
        }
      ],
      "stateMutability": "payable",
      "type": "function"
    },
    {
      "inputs": [
        {
          "internalType": "uint256",
          "name": "amountOutMin",
          "type": "uint256"
        },
        {
          "internalType": "address[]",
          "name": "path",
          "type": "address[]"
        },
        {
          "internalType": "address",
          "name": "to",
          "type": "address"
        },
        {
          "internalType": "uint256",
          "name": "deadline",
          "type": "uint256"
        }
      ],
      "name": "swapExactETHForTokens",
      "outputs": [
        {
          "internalType": "uint256[]",
          "name": "amounts",
          "type": "uint256[]"
        }
      ],
      "stateMutability": "payable",
      "type": "function"
    },
    {
      "inputs": [
        {
          "internalType": "uint256",
          "name": "amountOutMin",
          "type": "uint256"
        },
        {
          "internalType": "address[]",
          "name": "path",
          "type": "address[]"
        },
        {
          "internalType": "address",
          "name": "to",
          "type": "address"
        },
        {
          "internalType": "uint256",
          "name": "deadline",
          "type": "uint256"
        }
      ],
      "name": "swapExactETHForTokensSupportingFeeOnTransferTokens",
      "outputs": [],
      "stateMutability": "payable",
      "type": "function"
    },
    {
      "inputs": [
        {
          "internalType": "uint256",
          "name": "amountIn",
          "type": "uint256"
        },
        {
          "internalType": "uint256",
          "name": "amountOutMin",
          "type": "uint256"
        },
        {
          "internalType": "address[]",
          "name": "path",
          "type": "address[]"
        },
        {
          "internalType": "address",
          "name": "to",
          "type": "address"
        },
        {
          "internalType": "uint256",
          "name": "deadline",
          "type": "uint256"
        }
      ],
      "name": "swapExactTokensForETH",
      "outputs": [
        {
          "internalType": "uint256[]",
          "name": "amounts",
          "type": "uint256[]"
        }
      ],
      "stateMutability": "nonpayable",
      "type": "function"
    },
    {
      "inputs": [
        {
          "internalType": "uint256",
          "name": "amountIn",
          "type": "uint256"
        },
        {
          "internalType": "uint256",
          "name": "amountOutMin",
          "type": "uint256"
        },
        {
          "internalType": "address[]",
          "name": "path",
          "type": "address[]"
        },
        {
          "internalType": "address",
          "name": "to",
          "type": "address"
        },
        {
          "internalType": "uint256",
          "name": "deadline",
          "type": "uint256"
        }
      ],
      "name": "swapExactTokensForETHSupportingFeeOnTransferTokens",
      "outputs": [],
      "stateMutability": "nonpayable",
      "type": "function"
    },
    {
      "inputs": [
        {
          "internalType": "uint256",
          "name": "amountIn",
          "type": "uint256"
        },
        {
          "internalType": "uint256",
          "name": "amountOutMin",
          "type": "uint256"
        },
        {
          "internalType": "address[]",
          "name": "path",
          "type": "address[]"
        },
        {
          "internalType": "address",
          "name": "to",
          "type": "address"
        },
        {
          "internalType": "uint256",
          "name": "deadline",
          "type": "uint256"
        }
      ],
      "name": "swapExactTokensForTokens",
      "outputs": [
        {
          "internalType": "uint256[]",
          "name": "amounts",
          "type": "uint256[]"
        }
      ],
      "stateMutability": "nonpayable",
      "type": "function"
    },
    {
      "inputs": [
        {
          "internalType": "uint256",
          "name": "amountIn",
          "type": "uint256"
        },
        {
          "internalType": "uint256",
          "name": "amountOutMin",
          "type": "uint256"
        },
        {
          "internalType": "address[]",
          "name": "path",
          "type": "address[]"
        },
        {
          "internalType": "address",
          "name": "to",
          "type": "address"
        },
        {
          "internalType": "uint256",
          "name": "deadline",
          "type": "uint256"
        }
      ],
      "name": "swapExactTokensForTokensSupportingFeeOnTransferTokens",
      "outputs": [],
      "stateMutability": "nonpayable",
      "type": "function"
    },
    {
      "inputs": [
        {
          "internalType": "uint256",
          "name": "amountOut",
          "type": "uint256"
        },
        {
          "internalType": "uint256",
          "name": "amountInMax",
          "type": "uint256"
        },
        {
          "internalType": "address[]",
          "name": "path",
          "type": "address[]"
        },
        {
          "internalType": "address",
          "name": "to",
          "type": "address"
        },
        {
          "internalType": "uint256",
          "name": "deadline",
          "type": "uint256"
        }
      ],
      "name": "swapTokensForExactETH",
      "outputs": [
        {
          "internalType": "uint256[]",
          "name": "amounts",
          "type": "uint256[]"
        }
      ],
      "stateMutability": "nonpayable",
      "type": "function"
    },
    {
      "inputs": [
        {
          "internalType": "uint256",
          "name": "amountOut",
          "type": "uint256"
        },
        {
          "internalType": "uint256",
          "name": "amountInMax",
          "type": "uint256"
        },
        {
          "internalType": "address[]",
          "name": "path",
          "type": "address[]"
        },
        {
          "internalType": "address",
          "name": "to",
          "type": "address"
        },
        {
          "internalType": "uint256",
          "name": "deadline",
          "type": "uint256"
        }
      ],
      "name": "swapTokensForExactTokens",
      "outputs": [
        {
          "internalType": "uint256[]",
          "name": "amounts",
          "type": "uint256[]"
        }
      ],
      "stateMutability": "nonpayable",
      "type": "function"
    },
    {
      "stateMutability": "payable",
      "type": "receive"
    }
  ],
  "bytecode": "0x60c060405234801561001057600080fd5b506040516200476f3803806200476f8339818101604052604081101561003557600080fd5b5080516020909101516001600160601b0319606092831b8116608052911b1660a05260805160601c60a05160601c6145e56200018a6000398061017a5280610d3a5280610d755280610e6c528061108a5280611414528061157a52806119295280611a045280611ade5280611bac5280611cf25280611d7a5280611fe3528061205e528061211252806121de528061227352806122e752806127ca5280612a345280612a8a5280612abe5280612b325280612cc05280612e035280612e8b525080610efa5280610fd15280611150528061118952806112c452806114a2528061155852806116c85280611c3f5280611dac5280611f065280611fbb52806123195280612557528061274f528061277852806127a852806129155280612a685280612d535280612ebd528061374352806137865280613a605280613bd65280613fc75280614080528061413352506145e56000f3fe60806040526004361061016a5760003560e01c80638803dbee116100d1578063baa2abde1161008a578063ded9382a11610064578063ded9382a14610b30578063e8e3370014610ba3578063f305d71914610c23578063fb3bdb4114610c69576101a3565b8063baa2abde14610a09578063c45a015514610a66578063d06ca61f14610a7b576101a3565b80638803dbee146107fa57806396ed28f914610890578063ad5c4648146108e7578063ad615dec146108fc578063af2979eb14610932578063b6f9de9514610985576101a3565b80634a25d94a116101235780634a25d94a1461050b5780635b0d5984146105a15780635c11d79514610614578063791ac947146106aa5780637ff36ab51461074057806385f8c259146107c4576101a3565b806302751cec146101a8578063054d50d41461021457806318cbafe51461025c5780631f00ca74146103425780632195995c146103f757806338ed173914610475576101a3565b366101a357336001600160a01b037f000000000000000000000000000000000000000000000000000000000000000016146101a157fe5b005b600080fd5b3480156101b457600080fd5b506101fb600480360360c08110156101cb57600080fd5b506001600160a01b0381358116916020810135916040820135916060810135916080820135169060a00135610ced565b6040805192835260208301919091528051918290030190f35b34801561022057600080fd5b5061024a6004803603606081101561023757600080fd5b5080359060208101359060400135610e07565b60408051918252519081900360200190f35b34801561026857600080fd5b506102f2600480360360a081101561027f57600080fd5b813591602081013591810190606081016040820135600160201b8111156102a557600080fd5b8201836020820111156102b757600080fd5b803590602001918460208302840111600160201b831117156102d857600080fd5b91935091506001600160a01b038135169060200135610e1c565b60408051602080825283518183015283519192839290830191858101910280838360005b8381101561032e578181015183820152602001610316565b505050509050019250505060405180910390f35b34801561034e57600080fd5b506102f26004803603604081101561036557600080fd5b81359190810190604081016020820135600160201b81111561038657600080fd5b82018360208201111561039857600080fd5b803590602001918460208302840111600160201b831117156103b957600080fd5b919080806020026020016040519081016040528093929190818152602001838360200280828437600092019190915250929550611149945050505050565b34801561040357600080fd5b506101fb600480360361016081101561041b57600080fd5b506001600160a01b038135811691602081013582169160408201359160608101359160808201359160a08101359091169060c08101359060e081013515159060ff610100820135169061012081013590610140013561117f565b34801561048157600080fd5b506102f2600480360360a081101561049857600080fd5b813591602081013591810190606081016040820135600160201b8111156104be57600080fd5b8201836020820111156104d057600080fd5b803590602001918460208302840111600160201b831117156104f157600080fd5b91935091506001600160a01b038135169060200135611279565b34801561051757600080fd5b506102f2600480360360a081101561052e57600080fd5b813591602081013591810190606081016040820135600160201b81111561055457600080fd5b82018360208201111561056657600080fd5b803590602001918460208302840111600160201b8311171561058757600080fd5b91935091506001600160a01b0381351690602001356113c4565b3480156105ad57600080fd5b5061024a60048036036101408110156105c557600080fd5b506001600160a01b0381358116916020810135916040820135916060810135916080820135169060a08101359060c081013515159060ff60e08201351690610100810135906101200135611550565b34801561062057600080fd5b506101a1600480360360a081101561063757600080fd5b813591602081013591810190606081016040820135600160201b81111561065d57600080fd5b82018360208201111561066f57600080fd5b803590602001918460208302840111600160201b8311171561069057600080fd5b91935091506001600160a01b03813516906020013561165e565b3480156106b657600080fd5b506101a1600480360360a08110156106cd57600080fd5b813591602081013591810190606081016040820135600160201b8111156106f357600080fd5b82018360208201111561070557600080fd5b803590602001918460208302840111600160201b8311171561072657600080fd5b91935091506001600160a01b0381351690602001356118db565b6102f26004803603608081101561075657600080fd5b81359190810190604081016020820135600160201b81111561077757600080fd5b82018360208201111561078957600080fd5b803590602001918460208302840111600160201b831117156107aa57600080fd5b91935091506001600160a01b038135169060200135611b64565b3480156107d057600080fd5b5061024a600480360360608110156107e757600080fd5b5080359060208101359060400135611eae565b34801561080657600080fd5b506102f2600480360360a081101561081d57600080fd5b813591602081013591810190606081016040820135600160201b81111561084357600080fd5b82018360208201111561085557600080fd5b803590602001918460208302840111600160201b8311171561087657600080fd5b91935091506001600160a01b038135169060200135611ebb565b34801561089c57600080fd5b506108cb600480360360408110156108b357600080fd5b506001600160a01b0381358116916020013516611fb4565b604080516001600160a01b039092168252519081900360200190f35b3480156108f357600080fd5b506108cb611fe1565b34801561090857600080fd5b5061024a6004803603606081101561091f57600080fd5b5080359060208101359060400135612005565b34801561093e57600080fd5b5061024a600480360360c081101561095557600080fd5b506001600160a01b0381358116916020810135916040820135916060810135916080820135169060a00135612012565b6101a16004803603608081101561099b57600080fd5b81359190810190604081016020820135600160201b8111156109bc57600080fd5b8201836020820111156109ce57600080fd5b803590602001918460208302840111600160201b831117156109ef57600080fd5b91935091506001600160a01b038135169060200135612198565b348015610a1557600080fd5b506101fb600480360360e0811015610a2c57600080fd5b506001600160a01b038135811691602081013582169160408201359160608101359160808201359160a08101359091169060c00135612509565b348015610a7257600080fd5b506108cb61274d565b348015610a8757600080fd5b506102f260048036036040811015610a9e57600080fd5b81359190810190604081016020820135600160201b811115610abf57600080fd5b820183602082011115610ad157600080fd5b803590602001918460208302840111600160201b83111715610af257600080fd5b919080806020026020016040519081016040528093929190818152602001838360200280828437600092019190915250929550612771945050505050565b348015610b3c57600080fd5b506101fb6004803603610140811015610b5457600080fd5b506001600160a01b0381358116916020810135916040820135916060810135916080820135169060a08101359060c081013515159060ff60e0820135169061010081013590610120013561279e565b348015610baf57600080fd5b50610c056004803603610100811015610bc757600080fd5b506001600160a01b038135811691602081013582169160408201359160608101359160808201359160a08101359160c0820135169060e001356128b2565b60408051938452602084019290925282820152519081900360600190f35b610c05600480360360c0811015610c3957600080fd5b506001600160a01b0381358116916020810135916040820135916060810135916080820135169060a001356129e5565b6102f260048036036080811015610c7f57600080fd5b81359190810190604081016020820135600160201b811115610ca057600080fd5b820183602082011115610cb257600080fd5b803590602001918460208302840111600160201b83111715610cd357600080fd5b91935091506001600160a01b038135169060200135612c78565b6000808242811015610d34576040805162461bcd60e51b81526020600482015260186024820152600080516020614590833981519152604482015290519081900360640190fd5b610d63897f00000000000000000000000000000000000000000000000000000000000000008a8a8a308a612509565b9093509150610d73898685612ff1565b7f00000000000000000000000000000000000000000000000000000000000000006001600160a01b0316632e1a7d4d836040518263ffffffff1660e01b815260040180828152602001915050600060405180830381600087803b158015610dd957600080fd5b505af1158015610ded573d6000803e3d6000fd5b50505050610dfb858361315b565b50965096945050505050565b6000610e14848484613253565b949350505050565b60608142811015610e62576040805162461bcd60e51b81526020600482015260186024820152600080516020614590833981519152604482015290519081900360640190fd5b6001600160a01b037f00000000000000000000000000000000000000000000000000000000000000001686866000198101818110610e9c57fe5b905060200201356001600160a01b03166001600160a01b031614610ef5576040805162461bcd60e51b815260206004820152601d60248201526000805160206144ad833981519152604482015290519081900360640190fd5b610f537f00000000000000000000000000000000000000000000000000000000000000008988888080602002602001604051908101604052809392919081815260200183836020028082843760009201919091525061332b92505050565b91508682600184510381518110610f6657fe5b60200260200101511015610fab5760405162461bcd60e51b815260040180806020018281038252602b815260200180614516602b913960400191505060405180910390fd5b61104986866000818110610fbb57fe5b905060200201356001600160a01b03163361102f7f00000000000000000000000000000000000000000000000000000000000000008a8a6000818110610ffd57fe5b905060200201356001600160a01b03168b8b600181811061101a57fe5b905060200201356001600160a01b0316613477565b8560008151811061103c57fe5b6020026020010151613537565b61108882878780806020026020016040519081016040528093929190818152602001838360200280828437600092019190915250309250613694915050565b7f00000000000000000000000000000000000000000000000000000000000000006001600160a01b0316632e1a7d4d836001855103815181106110c757fe5b60200260200101516040518263ffffffff1660e01b815260040180828152602001915050600060405180830381600087803b15801561110557600080fd5b505af1158015611119573d6000803e3d6000fd5b5050505061113e848360018551038151811061113157fe5b602002602001015161315b565b509695505050505050565b60606111767f000000000000000000000000000000000000000000000000000000000000000084846138d1565b90505b92915050565b60008060006111af7f00000000000000000000000000000000000000000000000000000000000000008f8f613477565b90506000876111be578c6111c2565b6000195b6040805163d505accf60e01b815233600482015230602482015260448101839052606481018c905260ff8a16608482015260a4810189905260c4810188905290519192506001600160a01b0384169163d505accf9160e48082019260009290919082900301818387803b15801561123857600080fd5b505af115801561124c573d6000803e3d6000fd5b5050505061125f8f8f8f8f8f8f8f612509565b809450819550505050509b509b9950505050505050505050565b606081428110156112bf576040805162461bcd60e51b81526020600482015260186024820152600080516020614590833981519152604482015290519081900360640190fd5b61131d7f00000000000000000000000000000000000000000000000000000000000000008988888080602002602001604051908101604052809392919081815260200183836020028082843760009201919091525061332b92505050565b9150868260018451038151811061133057fe5b602002602001015110156113755760405162461bcd60e51b815260040180806020018281038252602b815260200180614516602b913960400191505060405180910390fd5b61138586866000818110610fbb57fe5b61113e82878780806020026020016040519081016040528093929190818152602001838360200280828437600092019190915250899250613694915050565b6060814281101561140a576040805162461bcd60e51b81526020600482015260186024820152600080516020614590833981519152604482015290519081900360640190fd5b6001600160a01b037f0000000000000000000000000000000000000000000000000000000000000000168686600019810181811061144457fe5b905060200201356001600160a01b03166001600160a01b03161461149d576040805162461bcd60e51b815260206004820152601d60248201526000805160206144ad833981519152604482015290519081900360640190fd5b6114fb7f0000000000000000000000000000000000000000000000000000000000000000898888808060200260200160405190810160405280939291908181526020018383602002808284376000920191909152506138d192505050565b9150868260008151811061150b57fe5b60200260200101511115610fab5760405162461bcd60e51b81526004018080602001828103825260278152602001806144866027913960400191505060405180910390fd5b60008061159e7f00000000000000000000000000000000000000000000000000000000000000008d7f0000000000000000000000000000000000000000000000000000000000000000613477565b90506000866115ad578b6115b1565b6000195b6040805163d505accf60e01b815233600482015230602482015260448101839052606481018b905260ff8916608482015260a4810188905260c4810187905290519192506001600160a01b0384169163d505accf9160e48082019260009290919082900301818387803b15801561162757600080fd5b505af115801561163b573d6000803e3d6000fd5b5050505061164d8d8d8d8d8d8d612012565b9d9c50505050505050505050505050565b80428110156116a2576040805162461bcd60e51b81526020600482015260186024820152600080516020614590833981519152604482015290519081900360640190fd5b611717858560008181106116b257fe5b905060200201356001600160a01b0316336117117f0000000000000000000000000000000000000000000000000000000000000000898960008181106116f457fe5b905060200201356001600160a01b03168a8a600181811061101a57fe5b8a613537565b60008585600019810181811061172957fe5b905060200201356001600160a01b03166001600160a01b03166370a08231856040518263ffffffff1660e01b815260040180826001600160a01b0316815260200191505060206040518083038186803b15801561178557600080fd5b505afa158015611799573d6000803e3d6000fd5b505050506040513d60208110156117af57600080fd5b505160408051602088810282810182019093528882529293506117f1929091899189918291850190849080828437600092019190915250889250613a09915050565b86611894828888600019810181811061180657fe5b905060200201356001600160a01b03166001600160a01b03166370a08231886040518263ffffffff1660e01b815260040180826001600160a01b0316815260200191505060206040518083038186803b15801561186257600080fd5b505afa158015611876573d6000803e3d6000fd5b505050506040513d602081101561188c57600080fd5b505190613d0b565b10156118d15760405162461bcd60e51b815260040180806020018281038252602b815260200180614516602b913960400191505060405180910390fd5b5050505050505050565b804281101561191f576040805162461bcd60e51b81526020600482015260186024820152600080516020614590833981519152604482015290519081900360640190fd5b6001600160a01b037f0000000000000000000000000000000000000000000000000000000000000000168585600019810181811061195957fe5b905060200201356001600160a01b03166001600160a01b0316146119b2576040805162461bcd60e51b815260206004820152601d60248201526000805160206144ad833981519152604482015290519081900360640190fd5b6119c2858560008181106116b257fe5b611a00858580806020026020016040519081016040528093929190818152602001838360200280828437600092019190915250309250613a09915050565b60007f00000000000000000000000000000000000000000000000000000000000000006001600160a01b03166370a08231306040518263ffffffff1660e01b815260040180826001600160a01b0316815260200191505060206040518083038186803b158015611a6f57600080fd5b505afa158015611a83573d6000803e3d6000fd5b505050506040513d6020811015611a9957600080fd5b5051905086811015611adc5760405162461bcd60e51b815260040180806020018281038252602b815260200180614516602b913960400191505060405180910390fd5b7f00000000000000000000000000000000000000000000000000000000000000006001600160a01b0316632e1a7d4d826040518263ffffffff1660e01b815260040180828152602001915050600060405180830381600087803b158015611b4257600080fd5b505af1158015611b56573d6000803e3d6000fd5b505050506118d1848261315b565b60608142811015611baa576040805162461bcd60e51b81526020600482015260186024820152600080516020614590833981519152604482015290519081900360640190fd5b7f00000000000000000000000000000000000000000000000000000000000000006001600160a01b031686866000818110611be157fe5b905060200201356001600160a01b03166001600160a01b031614611c3a576040805162461bcd60e51b815260206004820152601d60248201526000805160206144ad833981519152604482015290519081900360640190fd5b611c987f00000000000000000000000000000000000000000000000000000000000000003488888080602002602001604051908101604052809392919081815260200183836020028082843760009201919091525061332b92505050565b91508682600184510381518110611cab57fe5b60200260200101511015611cf05760405162461bcd60e51b815260040180806020018281038252602b815260200180614516602b913960400191505060405180910390fd5b7f00000000000000000000000000000000000000000000000000000000000000006001600160a01b031663d0e30db083600081518110611d2c57fe5b60200260200101516040518263ffffffff1660e01b81526004016000604051808303818588803b158015611d5f57600080fd5b505af1158015611d73573d6000803e3d6000fd5b50505050507f00000000000000000000000000000000000000000000000000000000000000006001600160a01b031663a9059cbb611dd87f0000000000000000000000000000000000000000000000000000000000000000898960008181106116f457fe5b84600081518110611de557fe5b60200260200101516040518363ffffffff1660e01b815260040180836001600160a01b0316815260200182815260200192505050602060405180830381600087803b158015611e3357600080fd5b505af1158015611e47573d6000803e3d6000fd5b505050506040513d6020811015611e5d57600080fd5b5051611e6557fe5b611ea482878780806020026020016040519081016040528093929190818152602001838360200280828437600092019190915250899250613694915050565b5095945050505050565b6000610e14848484613d5b565b60608142811015611f01576040805162461bcd60e51b81526020600482015260186024820152600080516020614590833981519152604482015290519081900360640190fd5b611f5f7f0000000000000000000000000000000000000000000000000000000000000000898888808060200260200160405190810160405280939291908181526020018383602002808284376000920191909152506138d192505050565b91508682600081518110611f6f57fe5b602002602001015111156113755760405162461bcd60e51b81526004018080602001828103825260278152602001806144866027913960400191505060405180910390fd5b60006111767f00000000000000000000000000000000000000000000000000000000000000008484613477565b7f000000000000000000000000000000000000000000000000000000000000000081565b6000610e14848484613e33565b60008142811015612058576040805162461bcd60e51b81526020600482015260186024820152600080516020614590833981519152604482015290519081900360640190fd5b612087887f00000000000000000000000000000000000000000000000000000000000000008989893089612509565b90508092505061211088858a6001600160a01b03166370a08231306040518263ffffffff1660e01b815260040180826001600160a01b0316815260200191505060206040518083038186803b1580156120df57600080fd5b505afa1580156120f3573d6000803e3d6000fd5b505050506040513d602081101561210957600080fd5b5051612ff1565b7f00000000000000000000000000000000000000000000000000000000000000006001600160a01b0316632e1a7d4d836040518263ffffffff1660e01b815260040180828152602001915050600060405180830381600087803b15801561217657600080fd5b505af115801561218a573d6000803e3d6000fd5b5050505061113e848361315b565b80428110156121dc576040805162461bcd60e51b81526020600482015260186024820152600080516020614590833981519152604482015290519081900360640190fd5b7f00000000000000000000000000000000000000000000000000000000000000006001600160a01b03168585600081811061221357fe5b905060200201356001600160a01b03166001600160a01b03161461226c576040805162461bcd60e51b815260206004820152601d60248201526000805160206144ad833981519152604482015290519081900360640190fd5b60003490507f00000000000000000000000000000000000000000000000000000000000000006001600160a01b031663d0e30db0826040518263ffffffff1660e01b81526004016000604051808303818588803b1580156122cc57600080fd5b505af11580156122e0573d6000803e3d6000fd5b50505050507f00000000000000000000000000000000000000000000000000000000000000006001600160a01b031663a9059cbb6123457f0000000000000000000000000000000000000000000000000000000000000000898960008181106116f457fe5b836040518363ffffffff1660e01b815260040180836001600160a01b0316815260200182815260200192505050602060405180830381600087803b15801561238c57600080fd5b505af11580156123a0573d6000803e3d6000fd5b505050506040513d60208110156123b657600080fd5b50516123be57fe5b6000868660001981018181106123d057fe5b905060200201356001600160a01b03166001600160a01b03166370a08231866040518263ffffffff1660e01b815260040180826001600160a01b0316815260200191505060206040518083038186803b15801561242c57600080fd5b505afa158015612440573d6000803e3d6000fd5b505050506040513d602081101561245657600080fd5b505160408051602089810282810182019093528982529293506124989290918a918a918291850190849080828437600092019190915250899250613a09915050565b8761189482898960001981018181106124ad57fe5b905060200201356001600160a01b03166001600160a01b03166370a08231896040518263ffffffff1660e01b815260040180826001600160a01b0316815260200191505060206040518083038186803b15801561186257600080fd5b6000808242811015612550576040805162461bcd60e51b81526020600482015260186024820152600080516020614590833981519152604482015290519081900360640190fd5b600061257d7f00000000000000000000000000000000000000000000000000000000000000008c8c613477565b604080516323b872dd60e01b81523360048201526001600160a01b03831660248201819052604482018d9052915192935090916323b872dd916064808201926020929091908290030181600087803b1580156125d857600080fd5b505af11580156125ec573d6000803e3d6000fd5b505050506040513d602081101561260257600080fd5b50506040805163226bf2d160e21b81526001600160a01b03888116600483015282516000938493928616926389afcb44926024808301939282900301818787803b15801561264f57600080fd5b505af1158015612663573d6000803e3d6000fd5b505050506040513d604081101561267957600080fd5b508051602090910151909250905060006126938e8e613ed9565b509050806001600160a01b03168e6001600160a01b0316146126b65781836126b9565b82825b90975095508a8710156126fd5760405162461bcd60e51b81526004018080602001828103825260268152602001806144cd6026913960400191505060405180910390fd5b8986101561273c5760405162461bcd60e51b81526004018080602001828103825260268152602001806144136026913960400191505060405180910390fd5b505050505097509795505050505050565b7f000000000000000000000000000000000000000000000000000000000000000081565b60606111767f0000000000000000000000000000000000000000000000000000000000000000848461332b565b60008060006127ee7f00000000000000000000000000000000000000000000000000000000000000008e7f0000000000000000000000000000000000000000000000000000000000000000613477565b90506000876127fd578c612801565b6000195b6040805163d505accf60e01b815233600482015230602482015260448101839052606481018c905260ff8a16608482015260a4810189905260c4810188905290519192506001600160a01b0384169163d505accf9160e48082019260009290919082900301818387803b15801561287757600080fd5b505af115801561288b573d6000803e3d6000fd5b5050505061289d8e8e8e8e8e8e610ced565b909f909e509c50505050505050505050505050565b600080600083428110156128fb576040805162461bcd60e51b81526020600482015260186024820152600080516020614590833981519152604482015290519081900360640190fd5b6129098c8c8c8c8c8c613fb7565b9094509250600061293b7f00000000000000000000000000000000000000000000000000000000000000008e8e613477565b90506129498d338388613537565b6129558c338387613537565b806001600160a01b0316636a627842886040518263ffffffff1660e01b815260040180826001600160a01b03168152602001915050602060405180830381600087803b1580156129a457600080fd5b505af11580156129b8573d6000803e3d6000fd5b505050506040513d60208110156129ce57600080fd5b5051949d939c50939a509198505050505050505050565b60008060008342811015612a2e576040805162461bcd60e51b81526020600482015260186024820152600080516020614590833981519152604482015290519081900360640190fd5b612a5c8a7f00000000000000000000000000000000000000000000000000000000000000008b348c8c613fb7565b90945092506000612aae7f00000000000000000000000000000000000000000000000000000000000000008c7f0000000000000000000000000000000000000000000000000000000000000000613477565b9050612abc8b338388613537565b7f00000000000000000000000000000000000000000000000000000000000000006001600160a01b031663d0e30db0856040518263ffffffff1660e01b81526004016000604051808303818588803b158015612b1757600080fd5b505af1158015612b2b573d6000803e3d6000fd5b50505050507f00000000000000000000000000000000000000000000000000000000000000006001600160a01b031663a9059cbb82866040518363ffffffff1660e01b815260040180836001600160a01b0316815260200182815260200192505050602060405180830381600087803b158015612ba757600080fd5b505af1158015612bbb573d6000803e3d6000fd5b505050506040513d6020811015612bd157600080fd5b5051612bd957fe5b806001600160a01b0316636a627842886040518263ffffffff1660e01b815260040180826001600160a01b03168152602001915050602060405180830381600087803b158015612c2857600080fd5b505af1158015612c3c573d6000803e3d6000fd5b505050506040513d6020811015612c5257600080fd5b5051925034841015612c6a57612c6a3385340361315b565b505096509650969350505050565b60608142811015612cbe576040805162461bcd60e51b81526020600482015260186024820152600080516020614590833981519152604482015290519081900360640190fd5b7f00000000000000000000000000000000000000000000000000000000000000006001600160a01b031686866000818110612cf557fe5b905060200201356001600160a01b03166001600160a01b031614612d4e576040805162461bcd60e51b815260206004820152601d60248201526000805160206144ad833981519152604482015290519081900360640190fd5b612dac7f0000000000000000000000000000000000000000000000000000000000000000888888808060200260200160405190810160405280939291908181526020018383602002808284376000920191909152506138d192505050565b91503482600081518110612dbc57fe5b60200260200101511115612e015760405162461bcd60e51b81526004018080602001828103825260278152602001806144866027913960400191505060405180910390fd5b7f00000000000000000000000000000000000000000000000000000000000000006001600160a01b031663d0e30db083600081518110612e3d57fe5b60200260200101516040518263ffffffff1660e01b81526004016000604051808303818588803b158015612e7057600080fd5b505af1158015612e84573d6000803e3d6000fd5b50505050507f00000000000000000000000000000000000000000000000000000000000000006001600160a01b031663a9059cbb612ee97f0000000000000000000000000000000000000000000000000000000000000000898960008181106116f457fe5b84600081518110612ef657fe5b60200260200101516040518363ffffffff1660e01b815260040180836001600160a01b0316815260200182815260200192505050602060405180830381600087803b158015612f4457600080fd5b505af1158015612f58573d6000803e3d6000fd5b505050506040513d6020811015612f6e57600080fd5b5051612f7657fe5b612fb582878780806020026020016040519081016040528093929190818152602001838360200280828437600092019190915250899250613694915050565b81600081518110612fc257fe5b6020026020010151341115611ea457611ea43383600081518110612fe257fe5b6020026020010151340361315b565b604080516001600160a01b038481166024830152604480830185905283518084039091018152606490920183526020820180516001600160e01b031663a9059cbb60e01b178152925182516000946060949389169392918291908083835b6020831061306e5780518252601f19909201916020918201910161304f565b6001836020036101000a0380198251168184511680821785525050505050509050019150506000604051808303816000865af19150503d80600081146130d0576040519150601f19603f3d011682016040523d82523d6000602084013e6130d5565b606091505b5091509150818015613103575080511580613103575080806020019051602081101561310057600080fd5b50515b613154576040805162461bcd60e51b815260206004820152601f60248201527f5472616e7366657248656c7065723a205452414e534645525f4641494c454400604482015290519081900360640190fd5b5050505050565b604080516000808252602082019092526001600160a01b0384169083906040518082805190602001908083835b602083106131a75780518252601f199092019160209182019101613188565b6001836020036101000a03801982511681845116808217855250505050505090500191505060006040518083038185875af1925050503d8060008114613209576040519150601f19603f3d011682016040523d82523d6000602084013e61320e565b606091505b505090508061324e5760405162461bcd60e51b81526004018080602001828103825260238152602001806144f36023913960400191505060405180910390fd5b505050565b60008084116132935760405162461bcd60e51b815260040180806020018281038252602b815260200180614565602b913960400191505060405180910390fd5b6000831180156132a35750600082115b6132de5760405162461bcd60e51b81526004018080602001828103825260288152602001806144396028913960400191505060405180910390fd5b60006132ec856103e5614248565b905060006132fa8285614248565b905060006133148361330e886103e8614248565b906142ab565b905080828161331f57fe5b04979650505050505050565b6060600282511015613384576040805162461bcd60e51b815260206004820152601e60248201527f556e697377617056324c6962726172793a20494e56414c49445f504154480000604482015290519081900360640190fd5b815167ffffffffffffffff8111801561339c57600080fd5b506040519080825280602002602001820160405280156133c6578160200160208202803683370190505b50905082816000815181106133d757fe5b60200260200101818152505060005b600183510381101561346f576000806134298786858151811061340557fe5b602002602001015187866001018151811061341c57fe5b60200260200101516142fa565b9150915061344b84848151811061343c57fe5b60200260200101518383613253565b84846001018151811061345a57fe5b602090810291909101015250506001016133e6565b509392505050565b60008060006134868585613ed9565b604080516bffffffffffffffffffffffff19606094851b811660208084019190915293851b81166034830152825160288184030181526048830184528051908501206001600160f81b031960688401529a90941b9093166069840152607d8301989098527fe18a34eb0e04b04f7a0ac29a6e80748dca96319b42c54d679cb821dca90c6303609d808401919091528851808403909101815260bd909201909752805196019590952095945050505050565b604080516001600160a01b0385811660248301528481166044830152606480830185905283518084039091018152608490920183526020820180516001600160e01b03166323b872dd60e01b17815292518251600094606094938a169392918291908083835b602083106135bc5780518252601f19909201916020918201910161359d565b6001836020036101000a0380198251168184511680821785525050505050509050019150506000604051808303816000865af19150503d806000811461361e576040519150601f19603f3d011682016040523d82523d6000602084013e613623565b606091505b5091509150818015613651575080511580613651575080806020019051602081101561364e57600080fd5b50515b61368c5760405162461bcd60e51b81526004018080602001828103825260248152602001806145416024913960400191505060405180910390fd5b505050505050565b60005b60018351038110156138cb576000808483815181106136b257fe5b60200260200101518584600101815181106136c957fe5b60200260200101519150915060006136e18383613ed9565b50905060008785600101815181106136f557fe5b60200260200101519050600080836001600160a01b0316866001600160a01b03161461372357826000613727565b6000835b91509150600060028a5103881061373e578861377f565b61377f7f0000000000000000000000000000000000000000000000000000000000000000878c8b6002018151811061377257fe5b6020026020010151613477565b90506137ac7f00000000000000000000000000000000000000000000000000000000000000008888613477565b6001600160a01b031663022c0d9f84848460006040519080825280601f01601f1916602001820160405280156137e9576020820181803683370190505b506040518563ffffffff1660e01b815260040180858152602001848152602001836001600160a01b0316815260200180602001828103825283818151815260200191508051906020019080838360005b83811015613851578181015183820152602001613839565b50505050905090810190601f16801561387e5780820380516001836020036101000a031916815260200191505b5095505050505050600060405180830381600087803b1580156138a057600080fd5b505af11580156138b4573d6000803e3d6000fd5b505060019099019850613697975050505050505050565b50505050565b606060028251101561392a576040805162461bcd60e51b815260206004820152601e60248201527f556e697377617056324c6962726172793a20494e56414c49445f504154480000604482015290519081900360640190fd5b815167ffffffffffffffff8111801561394257600080fd5b5060405190808252806020026020018201604052801561396c578160200160208202803683370190505b509050828160018351038151811061398057fe5b60209081029190910101528151600019015b801561346f576000806139c2878660018603815181106139ae57fe5b602002602001015187868151811061341c57fe5b915091506139e48484815181106139d557fe5b60200260200101518383613d5b565b8460018503815181106139f357fe5b6020908102919091010152505060001901613992565b60005b600183510381101561324e57600080848381518110613a2757fe5b6020026020010151858460010181518110613a3e57fe5b6020026020010151915091506000613a568383613ed9565b5090506000613a867f00000000000000000000000000000000000000000000000000000000000000008585613477565b9050600080600080846001600160a01b0316630902f1ac6040518163ffffffff1660e01b815260040160606040518083038186803b158015613ac757600080fd5b505afa158015613adb573d6000803e3d6000fd5b505050506040513d6060811015613af157600080fd5b5080516020909101516001600160701b0391821693501690506000806001600160a01b038a811690891614613b27578284613b2a565b83835b91509150613b7f828b6001600160a01b03166370a082318a6040518263ffffffff1660e01b815260040180826001600160a01b0316815260200191505060206040518083038186803b15801561186257600080fd5b9550613b8c868383613253565b945050505050600080856001600160a01b0316886001600160a01b031614613bb657826000613bba565b6000835b91509150600060028c51038a10613bd1578a613c05565b613c057f0000000000000000000000000000000000000000000000000000000000000000898e8d6002018151811061377257fe5b604080516000808252602082019283905263022c0d9f60e01b835260248201878152604483018790526001600160a01b038086166064850152608060848501908152845160a48601819052969750908c169563022c0d9f958a958a958a9591949193919260c486019290918190849084905b83811015613c8f578181015183820152602001613c77565b50505050905090810190601f168015613cbc5780820380516001836020036101000a031916815260200191505b5095505050505050600060405180830381600087803b158015613cde57600080fd5b505af1158015613cf2573d6000803e3d6000fd5b50506001909b019a50613a0c9950505050505050505050565b80820382811115611179576040805162461bcd60e51b815260206004820152601560248201527464732d6d6174682d7375622d756e646572666c6f7760581b604482015290519081900360640190fd5b6000808411613d9b5760405162461bcd60e51b815260040180806020018281038252602c8152602001806143c2602c913960400191505060405180910390fd5b600083118015613dab5750600082115b613de65760405162461bcd60e51b81526004018080602001828103825260288152602001806144396028913960400191505060405180910390fd5b6000613dfe6103e8613df88688614248565b90614248565b90506000613e126103e5613df88689613d0b565b9050613e296001828481613e2257fe5b04906142ab565b9695505050505050565b6000808411613e735760405162461bcd60e51b81526004018080602001828103825260258152602001806144616025913960400191505060405180910390fd5b600083118015613e835750600082115b613ebe5760405162461bcd60e51b81526004018080602001828103825260288152602001806144396028913960400191505060405180910390fd5b82613ec98584614248565b81613ed057fe5b04949350505050565b600080826001600160a01b0316846001600160a01b03161415613f2d5760405162461bcd60e51b81526004018080602001828103825260258152602001806143ee6025913960400191505060405180910390fd5b826001600160a01b0316846001600160a01b031610613f4d578284613f50565b83835b90925090506001600160a01b038216613fb0576040805162461bcd60e51b815260206004820152601e60248201527f556e697377617056324c6962726172793a205a45524f5f414444524553530000604482015290519081900360640190fd5b9250929050565b60008060006001600160a01b03167f00000000000000000000000000000000000000000000000000000000000000006001600160a01b031663e6a439058a8a6040518363ffffffff1660e01b815260040180836001600160a01b03168152602001826001600160a01b031681526020019250505060206040518083038186803b15801561404357600080fd5b505afa158015614057573d6000803e3d6000fd5b505050506040513d602081101561406d57600080fd5b50516001600160a01b0316141561412b577f00000000000000000000000000000000000000000000000000000000000000006001600160a01b031663c9c6539689896040518363ffffffff1660e01b815260040180836001600160a01b03168152602001826001600160a01b0316815260200192505050602060405180830381600087803b1580156140fe57600080fd5b505af1158015614112573d6000803e3d6000fd5b505050506040513d602081101561412857600080fd5b50505b6000806141597f00000000000000000000000000000000000000000000000000000000000000008b8b6142fa565b9150915081600014801561416b575080155b1561417b5787935086925061423b565b6000614188898484613e33565b90508781116141db57858110156141d05760405162461bcd60e51b81526004018080602001828103825260268152602001806144136026913960400191505060405180910390fd5b889450925082614239565b60006141e8898486613e33565b9050898111156141f457fe5b878110156142335760405162461bcd60e51b81526004018080602001828103825260268152602001806144cd6026913960400191505060405180910390fd5b94508793505b505b5050965096945050505050565b60008115806142635750508082028282828161426057fe5b04145b611179576040805162461bcd60e51b815260206004820152601460248201527364732d6d6174682d6d756c2d6f766572666c6f7760601b604482015290519081900360640190fd5b80820182811015611179576040805162461bcd60e51b815260206004820152601460248201527364732d6d6174682d6164642d6f766572666c6f7760601b604482015290519081900360640190fd5b60008060006143098585613ed9565b50905060008061431a888888613477565b6001600160a01b0316630902f1ac6040518163ffffffff1660e01b815260040160606040518083038186803b15801561435257600080fd5b505afa158015614366573d6000803e3d6000fd5b505050506040513d606081101561437c57600080fd5b5080516020909101516001600160701b0391821693501690506001600160a01b03878116908416146143af5780826143b2565b81815b9099909850965050505050505056fe556e697377617056324c6962726172793a20494e53554646494349454e545f4f55545055545f414d4f554e54556e697377617056324c6962726172793a204944454e544943414c5f414444524553534553556e69737761705632526f757465723a20494e53554646494349454e545f425f414d4f554e54556e697377617056324c6962726172793a20494e53554646494349454e545f4c4951554944495459556e697377617056324c6962726172793a20494e53554646494349454e545f414d4f554e54556e69737761705632526f757465723a204558434553534956455f494e5055545f414d4f554e54556e69737761705632526f757465723a20494e56414c49445f50415448000000556e69737761705632526f757465723a20494e53554646494349454e545f415f414d4f554e545472616e7366657248656c7065723a204554485f5452414e534645525f4641494c4544556e69737761705632526f757465723a20494e53554646494349454e545f4f55545055545f414d4f554e545472616e7366657248656c7065723a205452414e534645525f46524f4d5f4641494c4544556e697377617056324c6962726172793a20494e53554646494349454e545f494e5055545f414d4f554e54556e69737761705632526f757465723a20455850495245440000000000000000a26469706673582212205b7d975884564c04e6c71779a34432be7daac9dcf6c2a6944ef536fbb3c706c064736f6c634300060c0033",
  "linkReferences": {},
  "deployedLinkReferences": {}
}