{
  "_format": "hh-sol-artifact-1",
  "contractName": "KongChef",
  "sourceName": "contracts/KongChef.sol",
  "abi": [
    {
      "inputs": [
        {
          "internalType": "address",
          "name": "_stakeAddress",
          "type": "address"
        }
      ],
      "stateMutability": "nonpayable",
      "type": "constructor"
    },
    {
      "anonymous": false,
      "inputs": [
        {
          "indexed": true,
          "internalType": "address",
          "name": "user",
          "type": "address"
        },
        {
          "indexed": false,
          "internalType": "uint256",
          "name": "amount",
          "type": "uint256"
        }
      ],
      "name": "Deposit",
      "type": "event"
    },
    {
      "anonymous": false,
      "inputs": [
        {
          "indexed": true,
          "internalType": "address",
          "name": "user",
          "type": "address"
        },
        {
          "indexed": false,
          "internalType": "uint256",
          "name": "amount",
          "type": "uint256"
        }
      ],
      "name": "EmergencyWithdraw",
      "type": "event"
    },
    {
      "anonymous": false,
      "inputs": [
        {
          "indexed": true,
          "internalType": "address",
          "name": "user",
          "type": "address"
        },
        {
          "indexed": true,
          "internalType": "address",
          "name": "rewardToken",
          "type": "address"
        },
        {
          "indexed": false,
          "internalType": "uint256",
          "name": "amount",
          "type": "uint256"
        },
        {
          "indexed": true,
          "internalType": "address",
          "name": "to",
          "type": "address"
        }
      ],
      "name": "Harvest",
      "type": "event"
    },
    {
      "anonymous": false,
      "inputs": [
        {
          "indexed": true,
          "internalType": "address",
          "name": "previousOwner",
          "type": "address"
        },
        {
          "indexed": true,
          "internalType": "address",
          "name": "newOwner",
          "type": "address"
        }
      ],
      "name": "OwnershipTransferred",
      "type": "event"
    },
    {
      "anonymous": false,
      "inputs": [
        {
          "indexed": true,
          "internalType": "address",
          "name": "user",
          "type": "address"
        },
        {
          "indexed": false,
          "internalType": "uint256",
          "name": "amount",
          "type": "uint256"
        }
      ],
      "name": "Withdraw",
      "type": "event"
    },
    {
      "inputs": [
        {
          "internalType": "uint256",
          "name": "",
          "type": "uint256"
        }
      ],
      "name": "activeArr",
      "outputs": [
        {
          "internalType": "address",
          "name": "",
          "type": "address"
        }
      ],
      "stateMutability": "view",
      "type": "function"
    },
    {
      "inputs": [
        {
          "internalType": "address",
          "name": "_rewardAddress",
          "type": "address"
        },
        {
          "internalType": "uint256",
          "name": "_rewardPerBlock",
          "type": "uint256"
        },
        {
          "internalType": "uint256",
          "name": "_bonusStartBlock",
          "type": "uint256"
        },
        {
          "internalType": "uint256",
          "name": "_bonusEndBlock",
          "type": "uint256"
        },
        {
          "internalType": "address",
          "name": "_back",
          "type": "address"
        }
      ],
      "name": "addPool",
      "outputs": [],
      "stateMutability": "nonpayable",
      "type": "function"
    },
    {
      "inputs": [
        {
          "internalType": "address",
          "name": "",
          "type": "address"
        }
      ],
      "name": "balanceOf",
      "outputs": [
        {
          "internalType": "uint256",
          "name": "",
          "type": "uint256"
        }
      ],
      "stateMutability": "view",
      "type": "function"
    },
    {
      "inputs": [
        {
          "internalType": "uint256",
          "name": "_amount",
          "type": "uint256"
        }
      ],
      "name": "deposit",
      "outputs": [],
      "stateMutability": "nonpayable",
      "type": "function"
    },
    {
      "inputs": [],
      "name": "emergencyWithdraw",
      "outputs": [],
      "stateMutability": "nonpayable",
      "type": "function"
    },
    {
      "inputs": [
        {
          "internalType": "uint256",
          "name": "_from",
          "type": "uint256"
        },
        {
          "internalType": "uint256",
          "name": "_to",
          "type": "uint256"
        }
      ],
      "name": "getMultiplier",
      "outputs": [
        {
          "internalType": "uint256",
          "name": "",
          "type": "uint256"
        }
      ],
      "stateMutability": "pure",
      "type": "function"
    },
    {
      "inputs": [
        {
          "internalType": "address",
          "name": "_user",
          "type": "address"
        },
        {
          "internalType": "address",
          "name": "_rewardAddress",
          "type": "address"
        }
      ],
      "name": "getRewardDebt",
      "outputs": [
        {
          "internalType": "uint256",
          "name": "",
          "type": "uint256"
        }
      ],
      "stateMutability": "view",
      "type": "function"
    },
    {
      "inputs": [
        {
          "internalType": "address",
          "name": "to",
          "type": "address"
        }
      ],
      "name": "harvestAll",
      "outputs": [],
      "stateMutability": "nonpayable",
      "type": "function"
    },
    {
      "inputs": [],
      "name": "owner",
      "outputs": [
        {
          "internalType": "address",
          "name": "",
          "type": "address"
        }
      ],
      "stateMutability": "view",
      "type": "function"
    },
    {
      "inputs": [
        {
          "internalType": "address",
          "name": "_user",
          "type": "address"
        },
        {
          "internalType": "address",
          "name": "_rewardAddress",
          "type": "address"
        }
      ],
      "name": "pendingReward",
      "outputs": [
        {
          "internalType": "uint256",
          "name": "",
          "type": "uint256"
        }
      ],
      "stateMutability": "view",
      "type": "function"
    },
    {
      "inputs": [
        {
          "internalType": "address",
          "name": "",
          "type": "address"
        }
      ],
      "name": "poolMap",
      "outputs": [
        {
          "internalType": "uint256",
          "name": "poolId",
          "type": "uint256"
        },
        {
          "internalType": "contract IERC20",
          "name": "rewardToken",
          "type": "address"
        },
        {
          "internalType": "uint256",
          "name": "rewardPerBlock",
          "type": "uint256"
        },
        {
          "internalType": "uint256",
          "name": "lastRewardBlock",
          "type": "uint256"
        },
        {
          "internalType": "uint256",
          "name": "accPerShare",
          "type": "uint256"
        },
        {
          "internalType": "uint256",
          "name": "balance",
          "type": "uint256"
        },
        {
          "internalType": "uint256",
          "name": "amount",
          "type": "uint256"
        },
        {
          "internalType": "uint256",
          "name": "bonusStartBlock",
          "type": "uint256"
        },
        {
          "internalType": "uint256",
          "name": "bonusEndBlock",
          "type": "uint256"
        },
        {
          "internalType": "address",
          "name": "back",
          "type": "address"
        }
      ],
      "stateMutability": "view",
      "type": "function"
    },
    {
      "inputs": [
        {
          "internalType": "address",
          "name": "_rewardAddress",
          "type": "address"
        }
      ],
      "name": "removePool",
      "outputs": [],
      "stateMutability": "nonpayable",
      "type": "function"
    },
    {
      "inputs": [],
      "name": "renounceOwnership",
      "outputs": [],
      "stateMutability": "nonpayable",
      "type": "function"
    },
    {
      "inputs": [],
      "name": "stakeToken",
      "outputs": [
        {
          "internalType": "contract IERC20",
          "name": "",
          "type": "address"
        }
      ],
      "stateMutability": "view",
      "type": "function"
    },
    {
      "inputs": [],
      "name": "totalStake",
      "outputs": [
        {
          "internalType": "uint256",
          "name": "",
          "type": "uint256"
        }
      ],
      "stateMutability": "view",
      "type": "function"
    },
    {
      "inputs": [
        {
          "internalType": "address",
          "name": "newOwner",
          "type": "address"
        }
      ],
      "name": "transferOwnership",
      "outputs": [],
      "stateMutability": "nonpayable",
      "type": "function"
    },
    {
      "inputs": [
        {
          "internalType": "uint256",
          "name": "_amount",
          "type": "uint256"
        }
      ],
      "name": "withdraw",
      "outputs": [],
      "stateMutability": "nonpayable",
      "type": "function"
    }
  ],
  "bytecode": "0x600960808181526101c06040529060a061012080368337505081516200002d926001925060200190620000e3565b503480156200003b57600080fd5b50604051620020ac380380620020ac833981810160405260208110156200006157600080fd5b505160006200006f620000df565b600080546001600160a01b0319166001600160a01b0383169081178255604051929350917f8be0079c531659141344cd1fd0a4f28419497f9722a3daafe3b4186f6b6457e0908290a350600480546001600160a01b0319166001600160a01b03929092169190911790556200016e565b3390565b8280548282559060005260206000209081019282156200013b579160200282015b828111156200013b57825182546001600160a01b0319166001600160a01b0390911617825560209092019160019091019062000104565b50620001499291506200014d565b5090565b5b80821115620001495780546001600160a01b03191681556001016200014e565b611f2e806200017e6000396000f3fe608060405234801561001057600080fd5b506004361061010b5760003560e01c80638b0e9f3f116100a2578063ada98cc311610071578063ada98cc314610303578063b6b55f2514610331578063c16d81751461034e578063db2e21bc1461036b578063f2fde38b146103735761010b565b80638b0e9f3f146102a25780638da5cb5b146102aa5780638dbb1e3a146102b25780639ced7e76146102d55761010b565b80635b673532116100de5780635b673532146101bb578063699bdca91461023c57806370a0823114610262578063715018a61461029a5761010b565b8063296d2ea7146101105780632e1a7d4d146101545780633b7d09461461017157806351ed6a3014610197575b600080fd5b610152600480360360a081101561012657600080fd5b506001600160a01b03813581169160208101359160408201359160608101359160809091013516610399565b005b6101526004803603602081101561016a57600080fd5b50356109d8565b6101526004803603602081101561018757600080fd5b50356001600160a01b0316610bce565b61019f610e94565b604080516001600160a01b039092168252519081900360200190f35b6101e1600480360360208110156101d157600080fd5b50356001600160a01b0316610ea3565b604080519a8b526001600160a01b03998a1660208c01528a81019890985260608a0196909652608089019490945260a088019290925260c087015260e086015261010085015290911661012083015251908190036101400190f35b6101526004803603602081101561025257600080fd5b50356001600160a01b0316610f02565b6102886004803603602081101561027857600080fd5b50356001600160a01b0316610fc5565b60408051918252519081900360200190f35b610152610fd7565b610288611083565b61019f611089565b610288600480360360408110156102c857600080fd5b5080359060200135611098565b610288600480360360408110156102eb57600080fd5b506001600160a01b03813581169160200135166110b5565b6102886004803603604081101561031957600080fd5b506001600160a01b03813581169160200135166111fa565b6101526004803603602081101561034757600080fd5b5035611257565b61019f6004803603602081101561036457600080fd5b5035611489565b6101526114b0565b6101526004803603602081101561038957600080fd5b50356001600160a01b0316611577565b6103a1611679565b6001600160a01b03166103b2611089565b6001600160a01b0316146103fb576040805162461bcd60e51b81526020600482018190526024820152600080516020611eaf833981519152604482015290519081900360640190fd5b43831161044f576040805162461bcd60e51b815260206004820152601e60248201527f616464506f6f6c3a20626f6e75735374617274426c6f636b206572726f720000604482015290519081900360640190fd5b610457611ddc565b506001600160a01b03808616600090815260026020818152604092839020835161014081018552815481526001820154861692810183905292810154938301939093526003830154606083015260048301546080830152600583015460a0830152600683015460c0830152600783015460e0830152600883015461010083015260099092015490921661012083015215610531576040805162461bcd60e51b8152602060048201526016602482015275185919141bdbdb0e88185b1c9958591e48195e1a5cdd60521b604482015290519081900360640190fd5b600061054786610541868861167d565b906116da565b905060008790506000816001600160a01b03166370a08231306040518263ffffffff1660e01b815260040180826001600160a01b0316815260200191505060206040518083038186803b15801561059d57600080fd5b505afa1580156105b1573d6000803e3d6000fd5b505050506040513d60208110156105c757600080fd5b50516004549091506001600160a01b038a8116911614156105f3576005546105f090829061167d565b90505b8281101580156106035750600083115b61064c576040805162461bcd60e51b815260206004820152601560248201527430b2322837b7b61d1030b6b7bab73a1032b93937b960591b604482015290519081900360640190fd5b6000610658828561167d565b90508015610674576106746001600160a01b038416878361173a565b6000606060018054806020026020016040519081016040528092919081815260200182805480156106ce57602002820191906000526020600020905b81546001600160a01b031681526001909101906020018083116106b0575b5050505050905060005b81518160ff161015610850576000828260ff16815181106106f557fe5b6020026020010151905060006001600160a01b0316816001600160a01b031614156107685783610763578d60018360ff168154811061073057fe5b9060005260206000200160006101000a8154816001600160a01b0302191690836001600160a01b03160217905550600193505b610847565b6001600160a01b038082166000908152600260208181526040928390208351610140810185528154808252600183015487169382019390935292810154938301939093526003830154606083015260048301546080830152600583015460a0830152600683015460c0830152600783015460e08301526008830154610100830152600990920154909216610120830152909950431415610847576040805162461bcd60e51b815260206004820152601560248201527430b2322837b7b61d103837b7b624b21032b93937b960591b604482015290519081900360640190fd5b506001016106d8565b508161089a576040805162461bcd60e51b8152602060048201526014602482015273185919141bdbdb0e881858dd1a5d9948199d5b1b60621b604482015290519081900360640190fd5b604051806101400160405280438152602001866001600160a01b031681526020018c815260200160018c038152602001600081526020018781526020018781526020018b81526020018a8152602001896001600160a01b0316815250600260008e6001600160a01b03166001600160a01b031681526020019081526020016000206000820151816000015560208201518160010160006101000a8154816001600160a01b0302191690836001600160a01b0316021790555060408201518160020155606082015181600301556080820151816004015560a0820151816005015560c0820151816006015560e0820151816007015561010082015181600801556101208201518160090160006101000a8154816001600160a01b0302191690836001600160a01b03160217905550905050505050505050505050505050565b336000908152600660205260409020548181108015906109f85750600082115b610a3e576040805162461bcd60e51b81526020600482015260126024820152711dda5d1a191c985dce881b9bdd0819dbdbd960721b604482015290519081900360640190fd5b610a4733610f02565b6000610a53828461167d565b336000908152600660205260409020819055600554909150610a75908461167d565b600555600454610a8f906001600160a01b0316338561173a565b60606001805480602002602001604051908101604052809291908181526020018280548015610ae757602002820191906000526020600020905b81546001600160a01b03168152600190910190602001808311610ac9575b5050505050905060005b81518160ff161015610b91576000828260ff1681518110610b0e57fe5b6020026020010151905060006001600160a01b0316816001600160a01b031614610b88576001600160a01b03811660009081526002602052604090206004810154610b6b9064e8d4a5100090610b659088906116da565b9061178c565b905460009081526003602090815260408083203384529091529020555b50600101610af1565b5060408051858152905133917f884edad9ce6fa2440d8a54cc123490eb96d2768479d49ff9c7366125a9424364919081900360200190a250505050565b610bd6611679565b6001600160a01b0316610be7611089565b6001600160a01b031614610c30576040805162461bcd60e51b81526020600482018190526024820152600080516020611eaf833981519152604482015290519081900360640190fd5b6001600160a01b0380821660009081526002602052604090206001810154909116610c9a576040805162461bcd60e51b81526020600482015260156024820152741c995b5bdd99541bdbdb0e881b9bdd08195e1a5cdd605a1b604482015290519081900360640190fd5b600581015415610d54576001810154604080516370a0823160e01b815230600482015290516000926001600160a01b0316916370a08231916024808301926020929190829003018186803b158015610cf157600080fd5b505afa158015610d05573d6000803e3d6000fd5b505050506040513d6020811015610d1b57600080fd5b505160058301549091508110610d5257600982015460058301546001840154610d52926001600160a01b039182169291169061173a565b505b6001600160a01b0382166000908152600260208181526040808420848155600180820180546001600160a01b0319908116909155948201869055600382018690556004820186905560058201869055600682018690556007820186905560088201959095556009018054909316909255825482518183028101830190935280835260609391830182828015610e1257602002820191906000526020600020905b81546001600160a01b03168152600190910190602001808311610df4575b5050505050905060005b81518160ff161015610e8e57836001600160a01b0316828260ff1681518110610e4157fe5b60200260200101516001600160a01b03161415610e865760018160ff1681548110610e6857fe5b600091825260209091200180546001600160a01b0319169055610e8e565b600101610e1c565b50505050565b6004546001600160a01b031681565b6002602081905260009182526040909120805460018201549282015460038301546004840154600585015460068601546007870154600888015460099098015496986001600160a01b039081169896979596949593949293919291168a565b610f0a6117f3565b60606001805480602002602001604051908101604052809291908181526020018280548015610f6257602002820191906000526020600020905b81546001600160a01b03168152600190910190602001808311610f44575b5050505050905060005b81518160ff161015610fc0576000828260ff1681518110610f8957fe5b6020026020010151905060006001600160a01b0316816001600160a01b031614610fb757610fb7818561196c565b50600101610f6c565b505050565b60066020526000908152604090205481565b610fdf611679565b6001600160a01b0316610ff0611089565b6001600160a01b031614611039576040805162461bcd60e51b81526020600482018190526024820152600080516020611eaf833981519152604482015290519081900360640190fd5b600080546040516001600160a01b03909116907f8be0079c531659141344cd1fd0a4f28419497f9722a3daafe3b4186f6b6457e0908390a3600080546001600160a01b0319169055565b60055481565b6000546001600160a01b031690565b6000828211156110ab57508181036110af565b5060005b92915050565b6001600160a01b038082166000908152600260205260408120600181015491929091166110e65760009150506110af565b6001600160a01b0384166000908152600660205260409020548061110f576000925050506110af565b8160070154431080611125575081600801544310155b15611135576000925050506110af565b600482015460038301544311801561114e575060055415155b156111ad576000611163846003015443611098565b9050600061117e8560020154836116da90919063ffffffff16565b90506111a86111a1600554610b6564e8d4a51000856116da90919063ffffffff16565b8490611a69565b925050505b825460009081526003602090815260408083206001600160a01b038a1684529091529020546111ef816111e964e8d4a51000610b6587876116da565b9061167d565b979650505050505050565b6001600160a01b0380821660009081526002602052604081206001810154919290911661122b5760009150506110af565b5460009081526003602090815260408083206001600160a01b0387168452909152902054905092915050565b600081116112a0576040805162461bcd60e51b815260206004820152601160248201527019195c1bdcda5d0e881b9bdd0819dbdbd9607a1b604482015290519081900360640190fd5b33600090815260066020526040902054806112c2576112bd6117f3565b6112cb565b6112cb33610f02565b6004546112e3906001600160a01b0316333085611ac3565b60006112ef8284611a69565b3360009081526006602052604090208190556005549091506113119084611a69565b60055560018054604080516020808402820181019092528281526060939092909183018282801561136b57602002820191906000526020600020905b81546001600160a01b0316815260019091019060200180831161134d575b5050505050905060005b81518160ff16101561140f576000828260ff168151811061139257fe5b6020026020010151905060006001600160a01b0316816001600160a01b031614611406576001600160a01b038116600090815260026020526040902060048101546113e99064e8d4a5100090610b659088906116da565b905460009081526003602090815260408083203384529091529020555b50600101611375565b506006600061141c611089565b6001600160a01b03166001600160a01b031681526020019081526020016000205482111561144d5761144d33611577565b60408051858152905133917fe1fffcc4923d04b559f4d29a8bfc6cda04eb5b0d3c460751c2402c5c5cc9109c919081900360200190a250505050565b6001818154811061149657fe5b6000918252602090912001546001600160a01b0316905081565b3360009081526006602052604090205480611507576040805162461bcd60e51b81526020600482015260126024820152711dda5d1a191c985dce881b9bdd0819dbdbd960721b604482015290519081900360640190fd5b33600090815260066020526040812055600554611524908261167d565b60055560045461153e906001600160a01b0316338361173a565b60408051828152905133917f5fafa99d0643513820be26656b45130b01e1c03062e1266bf36f88cbd3bd9695919081900360200190a250565b61157f611679565b6001600160a01b0316611590611089565b6001600160a01b0316146115d9576040805162461bcd60e51b81526020600482018190526024820152600080516020611eaf833981519152604482015290519081900360640190fd5b6001600160a01b03811661161e5760405162461bcd60e51b8152600401808060200182810382526026815260200180611e426026913960400191505060405180910390fd5b600080546040516001600160a01b03808516939216917f8be0079c531659141344cd1fd0a4f28419497f9722a3daafe3b4186f6b6457e091a3600080546001600160a01b0319166001600160a01b0392909216919091179055565b3390565b6000828211156116d4576040805162461bcd60e51b815260206004820152601e60248201527f536166654d6174683a207375627472616374696f6e206f766572666c6f770000604482015290519081900360640190fd5b50900390565b6000826116e9575060006110af565b828202828482816116f657fe5b04146117335760405162461bcd60e51b8152600401808060200182810382526021815260200180611e8e6021913960400191505060405180910390fd5b9392505050565b604080516001600160a01b038416602482015260448082018490528251808303909101815260649091019091526020810180516001600160e01b031663a9059cbb60e01b179052610fc0908490611b19565b60008082116117e2576040805162461bcd60e51b815260206004820152601a60248201527f536166654d6174683a206469766973696f6e206279207a65726f000000000000604482015290519081900360640190fd5b8183816117eb57fe5b049392505050565b6060600180548060200260200160405190810160405280929190818152602001828054801561184b57602002820191906000526020600020905b81546001600160a01b0316815260019091019060200180831161182d575b5050505050905060005b81518160ff161015611968576000828260ff168151811061187257fe5b6020026020010151905060006001600160a01b0316816001600160a01b03161461195e576001600160a01b038116600090815260026020526040902060078101544310806118c4575080600801544310155b156118d0575050611960565b806003015443116118e2575050611960565b6005546118f6574360039091015550611960565b6000611906826003015443611098565b905060006119218360020154836116da90919063ffffffff16565b905061194f611944600554610b6564e8d4a51000856116da90919063ffffffff16565b600485015490611a69565b60048401555050436003909101555b505b600101611855565b5050565b336000818152600660205260408120549161198790856110b5565b6001600160a01b03851660009081526002602052604090209091508115611a625760058101546119b7908361167d565b600582015560048101546119d79064e8d4a5100090610b659086906116da565b815460009081526003602090815260408083203384529091529020556001810154611a0c906001600160a01b0316858461173a565b836001600160a01b0316856001600160a01b0316336001600160a01b03167f4064187d36856ce6a53f44b2f5a33d8ff0850c8ef35978146eba5c9a55626711856040518082815260200191505060405180910390a45b5050505050565b600082820183811015611733576040805162461bcd60e51b815260206004820152601b60248201527f536166654d6174683a206164646974696f6e206f766572666c6f770000000000604482015290519081900360640190fd5b604080516001600160a01b0380861660248301528416604482015260648082018490528251808303909101815260849091019091526020810180516001600160e01b03166323b872dd60e01b179052610e8e9085905b6060611b6e826040518060400160405280602081526020017f5361666545524332303a206c6f772d6c6576656c2063616c6c206661696c6564815250856001600160a01b0316611bca9092919063ffffffff16565b805190915015610fc057808060200190516020811015611b8d57600080fd5b5051610fc05760405162461bcd60e51b815260040180806020018281038252602a815260200180611ecf602a913960400191505060405180910390fd5b6060611bd98484600085611be1565b949350505050565b606082471015611c225760405162461bcd60e51b8152600401808060200182810382526026815260200180611e686026913960400191505060405180910390fd5b611c2b85611d32565b611c7c576040805162461bcd60e51b815260206004820152601d60248201527f416464726573733a2063616c6c20746f206e6f6e2d636f6e7472616374000000604482015290519081900360640190fd5b60006060866001600160a01b031685876040518082805190602001908083835b60208310611cbb5780518252601f199092019160209182019101611c9c565b6001836020036101000a03801982511681845116808217855250505050505090500191505060006040518083038185875af1925050503d8060008114611d1d576040519150601f19603f3d011682016040523d82523d6000602084013e611d22565b606091505b50915091506111ef828286611d38565b3b151590565b60608315611d47575081611733565b825115611d575782518084602001fd5b8160405162461bcd60e51b81526004018080602001828103825283818151815260200191508051906020019080838360005b83811015611da1578181015183820152602001611d89565b50505050905090810190601f168015611dce5780820380516001836020036101000a031916815260200191505b509250505060405180910390fd5b6040518061014001604052806000815260200160006001600160a01b031681526020016000815260200160008152602001600081526020016000815260200160008152602001600081526020016000815260200160006001600160a01b03168152509056fe4f776e61626c653a206e6577206f776e657220697320746865207a65726f2061646472657373416464726573733a20696e73756666696369656e742062616c616e636520666f722063616c6c536166654d6174683a206d756c7469706c69636174696f6e206f766572666c6f774f776e61626c653a2063616c6c6572206973206e6f7420746865206f776e65725361666545524332303a204552433230206f7065726174696f6e20646964206e6f742073756363656564a2646970667358221220fe8f19197acb24f861ce58113736beef22e5310890b6afc3ec8eb53994cc351064736f6c634300060c0033",
  "linkReferences": {},
  "deployedLinkReferences": {}
}