{
  "_format": "hh-sol-artifact-1",
  "contractName": "PoolTest",
  "sourceName": "contracts/PoolTest.sol",
  "abi": [
    {
      "inputs": [],
      "stateMutability": "nonpayable",
      "type": "constructor"
    },
    {
      "anonymous": false,
      "inputs": [
        {
          "indexed": true,
          "internalType": "address",
          "name": "previousOwner",
          "type": "address"
        },
        {
          "indexed": true,
          "internalType": "address",
          "name": "newOwner",
          "type": "address"
        }
      ],
      "name": "OwnershipTransferred",
      "type": "event"
    },
    {
      "inputs": [
        {
          "internalType": "contract IERC20",
          "name": "_rewardToken",
          "type": "address"
        },
        {
          "internalType": "uint256",
          "name": "_rewardPerBlock",
          "type": "uint256"
        }
      ],
      "name": "addPool",
      "outputs": [],
      "stateMutability": "nonpayable",
      "type": "function"
    },
    {
      "inputs": [],
      "name": "owner",
      "outputs": [
        {
          "internalType": "address",
          "name": "",
          "type": "address"
        }
      ],
      "stateMutability": "view",
      "type": "function"
    },
    {
      "inputs": [
        {
          "internalType": "address",
          "name": "",
          "type": "address"
        }
      ],
      "name": "poolMap",
      "outputs": [
        {
          "internalType": "contract PoolInfo",
          "name": "",
          "type": "address"
        }
      ],
      "stateMutability": "view",
      "type": "function"
    },
    {
      "inputs": [
        {
          "internalType": "contract IERC20",
          "name": "_rewardToken",
          "type": "address"
        }
      ],
      "name": "removePool",
      "outputs": [],
      "stateMutability": "nonpayable",
      "type": "function"
    },
    {
      "inputs": [],
      "name": "renounceOwnership",
      "outputs": [],
      "stateMutability": "nonpayable",
      "type": "function"
    },
    {
      "inputs": [
        {
          "internalType": "address",
          "name": "_user",
          "type": "address"
        },
        {
          "internalType": "contract IERC20",
          "name": "_rewardToken",
          "type": "address"
        }
      ],
      "name": "rewardDebt",
      "outputs": [
        {
          "internalType": "uint256",
          "name": "",
          "type": "uint256"
        }
      ],
      "stateMutability": "view",
      "type": "function"
    },
    {
      "inputs": [
        {
          "internalType": "contract IERC20",
          "name": "_rewardToken",
          "type": "address"
        },
        {
          "internalType": "uint256",
          "name": "value",
          "type": "uint256"
        }
      ],
      "name": "setRewardDebt",
      "outputs": [],
      "stateMutability": "nonpayable",
      "type": "function"
    },
    {
      "inputs": [
        {
          "internalType": "address",
          "name": "newOwner",
          "type": "address"
        }
      ],
      "name": "transferOwnership",
      "outputs": [],
      "stateMutability": "nonpayable",
      "type": "function"
    }
  ],
  "bytecode": "0x608060405234801561001057600080fd5b5060006100216100c460201b60201c565b9050806000806101000a81548173ffffffffffffffffffffffffffffffffffffffff021916908373ffffffffffffffffffffffffffffffffffffffff1602179055508073ffffffffffffffffffffffffffffffffffffffff16600073ffffffffffffffffffffffffffffffffffffffff167f8be0079c531659141344cd1fd0a4f28419497f9722a3daafe3b4186f6b6457e060405160405180910390a3506100cc565b600033905090565b611510806100db6000396000f3fe608060405234801561001057600080fd5b50600436106100885760003560e01c8063715018a61161005b578063715018a6146101db5780637b4717a4146101e55780638da5cb5b1461025d578063f2fde38b1461029157610088565b806332a9caba1461008d5780633b7d0946146100db5780634158e3e31461011f5780635b6735321461016d575b600080fd5b6100d9600480360360408110156100a357600080fd5b81019080803573ffffffffffffffffffffffffffffffffffffffff169060200190929190803590602001909291905050506102d5565b005b61011d600480360360208110156100f157600080fd5b81019080803573ffffffffffffffffffffffffffffffffffffffff16906020019092919050505061045d565b005b61016b6004803603604081101561013557600080fd5b81019080803573ffffffffffffffffffffffffffffffffffffffff16906020019092919080359060200190929190505050610571565b005b6101af6004803603602081101561018357600080fd5b81019080803573ffffffffffffffffffffffffffffffffffffffff169060200190929190505050610663565b604051808273ffffffffffffffffffffffffffffffffffffffff16815260200191505060405180910390f35b6101e3610696565b005b610247600480360360408110156101fb57600080fd5b81019080803573ffffffffffffffffffffffffffffffffffffffff169060200190929190803573ffffffffffffffffffffffffffffffffffffffff169060200190929190505050610803565b6040518082815260200191505060405180910390f35b610265610953565b604051808273ffffffffffffffffffffffffffffffffffffffff16815260200191505060405180910390f35b6102d3600480360360208110156102a757600080fd5b81019080803573ffffffffffffffffffffffffffffffffffffffff16906020019092919050505061097c565b005b6102dd610b6e565b73ffffffffffffffffffffffffffffffffffffffff166102fb610953565b73ffffffffffffffffffffffffffffffffffffffff1614610384576040517f08c379a00000000000000000000000000000000000000000000000000000000081526004018080602001828103825260208152602001807f4f776e61626c653a2063616c6c6572206973206e6f7420746865206f776e657281525060200191505060405180910390fd5b6000828260405161039490610b76565b808373ffffffffffffffffffffffffffffffffffffffff16815260200182815260200192505050604051809103906000f0801580156103d7573d6000803e3d6000fd5b50905080600160008573ffffffffffffffffffffffffffffffffffffffff1673ffffffffffffffffffffffffffffffffffffffff16815260200190815260200160002060006101000a81548173ffffffffffffffffffffffffffffffffffffffff021916908373ffffffffffffffffffffffffffffffffffffffff160217905550505050565b610465610b6e565b73ffffffffffffffffffffffffffffffffffffffff16610483610953565b73ffffffffffffffffffffffffffffffffffffffff161461050c576040517f08c379a00000000000000000000000000000000000000000000000000000000081526004018080602001828103825260208152602001807f4f776e61626c653a2063616c6c6572206973206e6f7420746865206f776e657281525060200191505060405180910390fd5b600160008273ffffffffffffffffffffffffffffffffffffffff1673ffffffffffffffffffffffffffffffffffffffff16815260200190815260200160002060006101000a81549073ffffffffffffffffffffffffffffffffffffffff021916905550565b6000600160008473ffffffffffffffffffffffffffffffffffffffff1673ffffffffffffffffffffffffffffffffffffffff16815260200190815260200160002060009054906101000a900473ffffffffffffffffffffffffffffffffffffffff1690508073ffffffffffffffffffffffffffffffffffffffff16634158e3e333846040518363ffffffff1660e01b8152600401808373ffffffffffffffffffffffffffffffffffffffff16815260200182815260200192505050600060405180830381600087803b15801561064657600080fd5b505af115801561065a573d6000803e3d6000fd5b50505050505050565b60016020528060005260406000206000915054906101000a900473ffffffffffffffffffffffffffffffffffffffff1681565b61069e610b6e565b73ffffffffffffffffffffffffffffffffffffffff166106bc610953565b73ffffffffffffffffffffffffffffffffffffffff1614610745576040517f08c379a00000000000000000000000000000000000000000000000000000000081526004018080602001828103825260208152602001807f4f776e61626c653a2063616c6c6572206973206e6f7420746865206f776e657281525060200191505060405180910390fd5b600073ffffffffffffffffffffffffffffffffffffffff1660008054906101000a900473ffffffffffffffffffffffffffffffffffffffff1673ffffffffffffffffffffffffffffffffffffffff167f8be0079c531659141344cd1fd0a4f28419497f9722a3daafe3b4186f6b6457e060405160405180910390a360008060006101000a81548173ffffffffffffffffffffffffffffffffffffffff021916908373ffffffffffffffffffffffffffffffffffffffff160217905550565b600080600160008473ffffffffffffffffffffffffffffffffffffffff1673ffffffffffffffffffffffffffffffffffffffff16815260200190815260200160002060009054906101000a900473ffffffffffffffffffffffffffffffffffffffff169050600073ffffffffffffffffffffffffffffffffffffffff168173ffffffffffffffffffffffffffffffffffffffff1614156108a757600091505061094d565b8073ffffffffffffffffffffffffffffffffffffffff16631d47c6d9856040518263ffffffff1660e01b8152600401808273ffffffffffffffffffffffffffffffffffffffff16815260200191505060206040518083038186803b15801561090e57600080fd5b505afa158015610922573d6000803e3d6000fd5b505050506040513d602081101561093857600080fd5b81019080805190602001909291905050509150505b92915050565b60008060009054906101000a900473ffffffffffffffffffffffffffffffffffffffff16905090565b610984610b6e565b73ffffffffffffffffffffffffffffffffffffffff166109a2610953565b73ffffffffffffffffffffffffffffffffffffffff1614610a2b576040517f08c379a00000000000000000000000000000000000000000000000000000000081526004018080602001828103825260208152602001807f4f776e61626c653a2063616c6c6572206973206e6f7420746865206f776e657281525060200191505060405180910390fd5b600073ffffffffffffffffffffffffffffffffffffffff168173ffffffffffffffffffffffffffffffffffffffff161415610ab1576040517f08c379a00000000000000000000000000000000000000000000000000000000081526004018080602001828103825260268152602001806114b56026913960400191505060405180910390fd5b8073ffffffffffffffffffffffffffffffffffffffff1660008054906101000a900473ffffffffffffffffffffffffffffffffffffffff1673ffffffffffffffffffffffffffffffffffffffff167f8be0079c531659141344cd1fd0a4f28419497f9722a3daafe3b4186f6b6457e060405160405180910390a3806000806101000a81548173ffffffffffffffffffffffffffffffffffffffff021916908373ffffffffffffffffffffffffffffffffffffffff16021790555050565b600033905090565b61093180610b848339019056fe608060405234801561001057600080fd5b506040516109313803806109318339818101604052604081101561003357600080fd5b810190808051906020019092919080519060200190929190505050600061005e61014b60201b60201c565b9050806000806101000a81548173ffffffffffffffffffffffffffffffffffffffff021916908373ffffffffffffffffffffffffffffffffffffffff1602179055508073ffffffffffffffffffffffffffffffffffffffff16600073ffffffffffffffffffffffffffffffffffffffff167f8be0079c531659141344cd1fd0a4f28419497f9722a3daafe3b4186f6b6457e060405160405180910390a35081600160006101000a81548173ffffffffffffffffffffffffffffffffffffffff021916908373ffffffffffffffffffffffffffffffffffffffff160217905550806002819055505050610153565b600033905090565b6107cf806101626000396000f3fe608060405234801561001057600080fd5b50600436106100885760003560e01c80638ae39cac1161005b5780638ae39cac146101955780638da5cb5b146101b3578063f2fde38b146101e7578063f7c618c11461022b57610088565b80631d47c6d91461008d5780634158e3e3146100e55780635873eb9b14610133578063715018a61461018b575b600080fd5b6100cf600480360360208110156100a357600080fd5b81019080803573ffffffffffffffffffffffffffffffffffffffff16906020019092919050505061025f565b6040518082815260200191505060405180910390f35b610131600480360360408110156100fb57600080fd5b81019080803573ffffffffffffffffffffffffffffffffffffffff169060200190929190803590602001909291905050506102a8565b005b6101756004803603602081101561014957600080fd5b81019080803573ffffffffffffffffffffffffffffffffffffffff16906020019092919050505061039f565b6040518082815260200191505060405180910390f35b6101936103b7565b005b61019d610524565b6040518082815260200191505060405180910390f35b6101bb61052a565b604051808273ffffffffffffffffffffffffffffffffffffffff16815260200191505060405180910390f35b610229600480360360208110156101fd57600080fd5b81019080803573ffffffffffffffffffffffffffffffffffffffff169060200190929190505050610553565b005b610233610745565b604051808273ffffffffffffffffffffffffffffffffffffffff16815260200191505060405180910390f35b6000600360008373ffffffffffffffffffffffffffffffffffffffff1673ffffffffffffffffffffffffffffffffffffffff168152602001908152602001600020549050919050565b6102b061076b565b73ffffffffffffffffffffffffffffffffffffffff166102ce61052a565b73ffffffffffffffffffffffffffffffffffffffff1614610357576040517f08c379a00000000000000000000000000000000000000000000000000000000081526004018080602001828103825260208152602001807f4f776e61626c653a2063616c6c6572206973206e6f7420746865206f776e657281525060200191505060405180910390fd5b80600360008473ffffffffffffffffffffffffffffffffffffffff1673ffffffffffffffffffffffffffffffffffffffff168152602001908152602001600020819055505050565b60036020528060005260406000206000915090505481565b6103bf61076b565b73ffffffffffffffffffffffffffffffffffffffff166103dd61052a565b73ffffffffffffffffffffffffffffffffffffffff1614610466576040517f08c379a00000000000000000000000000000000000000000000000000000000081526004018080602001828103825260208152602001807f4f776e61626c653a2063616c6c6572206973206e6f7420746865206f776e657281525060200191505060405180910390fd5b600073ffffffffffffffffffffffffffffffffffffffff1660008054906101000a900473ffffffffffffffffffffffffffffffffffffffff1673ffffffffffffffffffffffffffffffffffffffff167f8be0079c531659141344cd1fd0a4f28419497f9722a3daafe3b4186f6b6457e060405160405180910390a360008060006101000a81548173ffffffffffffffffffffffffffffffffffffffff021916908373ffffffffffffffffffffffffffffffffffffffff160217905550565b60025481565b60008060009054906101000a900473ffffffffffffffffffffffffffffffffffffffff16905090565b61055b61076b565b73ffffffffffffffffffffffffffffffffffffffff1661057961052a565b73ffffffffffffffffffffffffffffffffffffffff1614610602576040517f08c379a00000000000000000000000000000000000000000000000000000000081526004018080602001828103825260208152602001807f4f776e61626c653a2063616c6c6572206973206e6f7420746865206f776e657281525060200191505060405180910390fd5b600073ffffffffffffffffffffffffffffffffffffffff168173ffffffffffffffffffffffffffffffffffffffff161415610688576040517f08c379a00000000000000000000000000000000000000000000000000000000081526004018080602001828103825260268152602001806107746026913960400191505060405180910390fd5b8073ffffffffffffffffffffffffffffffffffffffff1660008054906101000a900473ffffffffffffffffffffffffffffffffffffffff1673ffffffffffffffffffffffffffffffffffffffff167f8be0079c531659141344cd1fd0a4f28419497f9722a3daafe3b4186f6b6457e060405160405180910390a3806000806101000a81548173ffffffffffffffffffffffffffffffffffffffff021916908373ffffffffffffffffffffffffffffffffffffffff16021790555050565b600160009054906101000a900473ffffffffffffffffffffffffffffffffffffffff1681565b60003390509056fe4f776e61626c653a206e6577206f776e657220697320746865207a65726f2061646472657373a2646970667358221220874e13730ca67d041d5230789da2180440fdfc9529752607f0067739e7d328a564736f6c634300060c00334f776e61626c653a206e6577206f776e657220697320746865207a65726f2061646472657373a26469706673582212208df71c78f6b51a863e9a22d36e15bebc6ed15ef6037df72f7d1ae1d429af3a2064736f6c634300060c0033",
  "linkReferences": {},
  "deployedLinkReferences": {}
}