{
  "_format": "hh-sol-artifact-1",
  "contractName": "MasterChef",
  "sourceName": "contracts/MasterChef.sol",
  "abi": [
    {
      "inputs": [
        {
          "internalType": "contract KingKongToken",
          "name": "_kkt",
          "type": "address"
        },
        {
          "internalType": "address",
          "name": "_devaddr",
          "type": "address"
        },
        {
          "internalType": "uint256",
          "name": "_kktPerBlock",
          "type": "uint256"
        },
        {
          "internalType": "uint256",
          "name": "_startBlock",
          "type": "uint256"
        }
      ],
      "stateMutability": "nonpayable",
      "type": "constructor"
    },
    {
      "anonymous": false,
      "inputs": [
        {
          "indexed": true,
          "internalType": "address",
          "name": "user",
          "type": "address"
        },
        {
          "indexed": true,
          "internalType": "uint256",
          "name": "pid",
          "type": "uint256"
        },
        {
          "indexed": false,
          "internalType": "uint256",
          "name": "amount",
          "type": "uint256"
        }
      ],
      "name": "Deposit",
      "type": "event"
    },
    {
      "anonymous": false,
      "inputs": [
        {
          "indexed": true,
          "internalType": "address",
          "name": "user",
          "type": "address"
        },
        {
          "indexed": true,
          "internalType": "uint256",
          "name": "pid",
          "type": "uint256"
        },
        {
          "indexed": false,
          "internalType": "uint256",
          "name": "amount",
          "type": "uint256"
        }
      ],
      "name": "EmergencyWithdraw",
      "type": "event"
    },
    {
      "anonymous": false,
      "inputs": [
        {
          "indexed": true,
          "internalType": "address",
          "name": "previousOwner",
          "type": "address"
        },
        {
          "indexed": true,
          "internalType": "address",
          "name": "newOwner",
          "type": "address"
        }
      ],
      "name": "OwnershipTransferred",
      "type": "event"
    },
    {
      "anonymous": false,
      "inputs": [
        {
          "indexed": true,
          "internalType": "address",
          "name": "user",
          "type": "address"
        },
        {
          "indexed": true,
          "internalType": "uint256",
          "name": "pid",
          "type": "uint256"
        },
        {
          "indexed": false,
          "internalType": "uint256",
          "name": "amount",
          "type": "uint256"
        }
      ],
      "name": "Withdraw",
      "type": "event"
    },
    {
      "inputs": [
        {
          "internalType": "uint256",
          "name": "_allocPoint",
          "type": "uint256"
        },
        {
          "internalType": "contract IERC20",
          "name": "_lpToken",
          "type": "address"
        },
        {
          "internalType": "bool",
          "name": "_withUpdate",
          "type": "bool"
        }
      ],
      "name": "add",
      "outputs": [],
      "stateMutability": "nonpayable",
      "type": "function"
    },
    {
      "inputs": [
        {
          "internalType": "uint256",
          "name": "_pid",
          "type": "uint256"
        },
        {
          "internalType": "uint256",
          "name": "_amount",
          "type": "uint256"
        }
      ],
      "name": "deposit",
      "outputs": [],
      "stateMutability": "nonpayable",
      "type": "function"
    },
    {
      "inputs": [
        {
          "internalType": "address",
          "name": "_devaddr",
          "type": "address"
        }
      ],
      "name": "dev",
      "outputs": [],
      "stateMutability": "nonpayable",
      "type": "function"
    },
    {
      "inputs": [],
      "name": "devaddr",
      "outputs": [
        {
          "internalType": "address",
          "name": "",
          "type": "address"
        }
      ],
      "stateMutability": "view",
      "type": "function"
    },
    {
      "inputs": [
        {
          "internalType": "uint256",
          "name": "_pid",
          "type": "uint256"
        }
      ],
      "name": "emergencyWithdraw",
      "outputs": [],
      "stateMutability": "nonpayable",
      "type": "function"
    },
    {
      "inputs": [
        {
          "internalType": "uint256",
          "name": "_from",
          "type": "uint256"
        },
        {
          "internalType": "uint256",
          "name": "_to",
          "type": "uint256"
        }
      ],
      "name": "getMultiplier",
      "outputs": [
        {
          "internalType": "uint256",
          "name": "",
          "type": "uint256"
        }
      ],
      "stateMutability": "pure",
      "type": "function"
    },
    {
      "inputs": [],
      "name": "kkt",
      "outputs": [
        {
          "internalType": "contract KingKongToken",
          "name": "",
          "type": "address"
        }
      ],
      "stateMutability": "view",
      "type": "function"
    },
    {
      "inputs": [],
      "name": "kktPerBlock",
      "outputs": [
        {
          "internalType": "uint256",
          "name": "",
          "type": "uint256"
        }
      ],
      "stateMutability": "view",
      "type": "function"
    },
    {
      "inputs": [],
      "name": "massUpdatePools",
      "outputs": [],
      "stateMutability": "nonpayable",
      "type": "function"
    },
    {
      "inputs": [],
      "name": "owner",
      "outputs": [
        {
          "internalType": "address",
          "name": "",
          "type": "address"
        }
      ],
      "stateMutability": "view",
      "type": "function"
    },
    {
      "inputs": [
        {
          "internalType": "uint256",
          "name": "_pid",
          "type": "uint256"
        },
        {
          "internalType": "address",
          "name": "_user",
          "type": "address"
        }
      ],
      "name": "pendingKKT",
      "outputs": [
        {
          "internalType": "uint256",
          "name": "",
          "type": "uint256"
        }
      ],
      "stateMutability": "view",
      "type": "function"
    },
    {
      "inputs": [
        {
          "internalType": "uint256",
          "name": "",
          "type": "uint256"
        }
      ],
      "name": "poolInfo",
      "outputs": [
        {
          "internalType": "contract IERC20",
          "name": "lpToken",
          "type": "address"
        },
        {
          "internalType": "uint256",
          "name": "allocPoint",
          "type": "uint256"
        },
        {
          "internalType": "uint256",
          "name": "lastRewardBlock",
          "type": "uint256"
        },
        {
          "internalType": "uint256",
          "name": "accKKTPerShare",
          "type": "uint256"
        }
      ],
      "stateMutability": "view",
      "type": "function"
    },
    {
      "inputs": [],
      "name": "poolLength",
      "outputs": [
        {
          "internalType": "uint256",
          "name": "",
          "type": "uint256"
        }
      ],
      "stateMutability": "view",
      "type": "function"
    },
    {
      "inputs": [],
      "name": "renounceOwnership",
      "outputs": [],
      "stateMutability": "nonpayable",
      "type": "function"
    },
    {
      "inputs": [
        {
          "internalType": "uint256",
          "name": "_pid",
          "type": "uint256"
        },
        {
          "internalType": "uint256",
          "name": "_allocPoint",
          "type": "uint256"
        },
        {
          "internalType": "bool",
          "name": "_withUpdate",
          "type": "bool"
        }
      ],
      "name": "set",
      "outputs": [],
      "stateMutability": "nonpayable",
      "type": "function"
    },
    {
      "inputs": [
        {
          "internalType": "uint256",
          "name": "_kktPerBlock",
          "type": "uint256"
        }
      ],
      "name": "setKKTPerBlock",
      "outputs": [],
      "stateMutability": "nonpayable",
      "type": "function"
    },
    {
      "inputs": [],
      "name": "startBlock",
      "outputs": [
        {
          "internalType": "uint256",
          "name": "",
          "type": "uint256"
        }
      ],
      "stateMutability": "view",
      "type": "function"
    },
    {
      "inputs": [],
      "name": "totalAllocPoint",
      "outputs": [
        {
          "internalType": "uint256",
          "name": "",
          "type": "uint256"
        }
      ],
      "stateMutability": "view",
      "type": "function"
    },
    {
      "inputs": [
        {
          "internalType": "address",
          "name": "newOwner",
          "type": "address"
        }
      ],
      "name": "transferOwnership",
      "outputs": [],
      "stateMutability": "nonpayable",
      "type": "function"
    },
    {
      "inputs": [
        {
          "internalType": "uint256",
          "name": "_pid",
          "type": "uint256"
        }
      ],
      "name": "updatePool",
      "outputs": [],
      "stateMutability": "nonpayable",
      "type": "function"
    },
    {
      "inputs": [
        {
          "internalType": "uint256",
          "name": "",
          "type": "uint256"
        },
        {
          "internalType": "address",
          "name": "",
          "type": "address"
        }
      ],
      "name": "userInfo",
      "outputs": [
        {
          "internalType": "uint256",
          "name": "amount",
          "type": "uint256"
        },
        {
          "internalType": "uint256",
          "name": "rewardDebt",
          "type": "uint256"
        }
      ],
      "stateMutability": "view",
      "type": "function"
    },
    {
      "inputs": [
        {
          "internalType": "uint256",
          "name": "_pid",
          "type": "uint256"
        },
        {
          "internalType": "uint256",
          "name": "_amount",
          "type": "uint256"
        }
      ],
      "name": "withdraw",
      "outputs": [],
      "stateMutability": "nonpayable",
      "type": "function"
    }
  ],
  "bytecode": "0x6080604052600060065534801561001557600080fd5b5060405161269c38038061269c8339818101604052608081101561003857600080fd5b810190808051906020019092919080519060200190929190805190602001909291908051906020019092919050505060006100776101ae60201b60201c565b9050806000806101000a81548173ffffffffffffffffffffffffffffffffffffffff021916908373ffffffffffffffffffffffffffffffffffffffff1602179055508073ffffffffffffffffffffffffffffffffffffffff16600073ffffffffffffffffffffffffffffffffffffffff167f8be0079c531659141344cd1fd0a4f28419497f9722a3daafe3b4186f6b6457e060405160405180910390a35083600160006101000a81548173ffffffffffffffffffffffffffffffffffffffff021916908373ffffffffffffffffffffffffffffffffffffffff16021790555082600260006101000a81548173ffffffffffffffffffffffffffffffffffffffff021916908373ffffffffffffffffffffffffffffffffffffffff1602179055508160038190555080600781905550505050506101b6565b600033905090565b6124d7806101c56000396000f3fe608060405234801561001057600080fd5b50600436106101425760003560e01c8063630b5ba1116100b85780638da5cb5b1161007c5780638da5cb5b1461047a5780638dbb1e3a146104ae57806393f1a40b146104fa578063d49e77cd14610563578063e2bbb15814610597578063f2fde38b146105cf57610142565b8063630b5ba1146103aa57806364482f79146103b4578063715018a6146103f85780638c577b19146104025780638d88a90e1461043657610142565b8063441a3e701161010a578063441a3e70146102ac5780634532e25c146102e4578063480f38b21461031257806348cd4cb11461033057806351eb05a61461034e5780635312ea8e1461037c57610142565b8063081e3eda146101475780630ffb16f9146101655780631526fe27146101c757806317caf6f1146102345780631eaaa04514610252575b600080fd5b61014f610613565b6040518082815260200191505060405180910390f35b6101b16004803603604081101561017b57600080fd5b8101908080359060200190929190803573ffffffffffffffffffffffffffffffffffffffff169060200190929190505050610620565b6040518082815260200191505060405180910390f35b6101f3600480360360208110156101dd57600080fd5b8101908080359060200190929190505050610866565b604051808573ffffffffffffffffffffffffffffffffffffffff16815260200184815260200183815260200182815260200194505050505060405180910390f35b61023c6108c3565b6040518082815260200191505060405180910390f35b6102aa6004803603606081101561026857600080fd5b8101908080359060200190929190803573ffffffffffffffffffffffffffffffffffffffff1690602001909291908035151590602001909291905050506108c9565b005b6102e2600480360360408110156102c257600080fd5b810190808035906020019092919080359060200190929190505050610a89565b005b610310600480360360208110156102fa57600080fd5b8101908080359060200190929190505050610cd3565b005b61031a610d8c565b6040518082815260200191505060405180910390f35b610338610d92565b6040518082815260200191505060405180910390f35b61037a6004803603602081101561036457600080fd5b8101908080359060200190929190505050610d98565b005b6103a86004803603602081101561039257600080fd5b81019080803590602001909291905050506110e4565b005b6103b2611216565b005b6103f6600480360360608110156103ca57600080fd5b810190808035906020019092919080359060200190929190803515159060200190929190505050611243565b005b610400611374565b005b61040a6114e1565b604051808273ffffffffffffffffffffffffffffffffffffffff16815260200191505060405180910390f35b6104786004803603602081101561044c57600080fd5b81019080803573ffffffffffffffffffffffffffffffffffffffff169060200190929190505050611507565b005b61048261160e565b604051808273ffffffffffffffffffffffffffffffffffffffff16815260200191505060405180910390f35b6104e4600480360360408110156104c457600080fd5b810190808035906020019092919080359060200190929190505050611637565b6040518082815260200191505060405180910390f35b6105466004803603604081101561051057600080fd5b8101908080359060200190929190803573ffffffffffffffffffffffffffffffffffffffff169060200190929190505050611654565b604051808381526020018281526020019250505060405180910390f35b61056b611685565b604051808273ffffffffffffffffffffffffffffffffffffffff16815260200191505060405180910390f35b6105cd600480360360408110156105ad57600080fd5b8101908080359060200190929190803590602001909291905050506116ab565b005b610611600480360360208110156105e557600080fd5b81019080803573ffffffffffffffffffffffffffffffffffffffff16906020019092919050505061188b565b005b6000600480549050905090565b6000806004848154811061063057fe5b9060005260206000209060040201905060006005600086815260200190815260200160002060008573ffffffffffffffffffffffffffffffffffffffff1673ffffffffffffffffffffffffffffffffffffffff168152602001908152602001600020905060008260030154905060008360000160009054906101000a900473ffffffffffffffffffffffffffffffffffffffff1673ffffffffffffffffffffffffffffffffffffffff166370a08231306040518263ffffffff1660e01b8152600401808273ffffffffffffffffffffffffffffffffffffffff16815260200191505060206040518083038186803b15801561072a57600080fd5b505afa15801561073e573d6000803e3d6000fd5b505050506040513d602081101561075457600080fd5b8101908080519060200190929190505050905083600201544311801561077b575060008114155b15610816576000610790856002015443611637565b905060006107d36006546107c588600101546107b760035487611a7d90919063ffffffff16565b611a7d90919063ffffffff16565b611b0390919063ffffffff16565b9050610811610802846107f464e8d4a5100085611a7d90919063ffffffff16565b611b0390919063ffffffff16565b85611b8c90919063ffffffff16565b935050505b61085a836001015461084c64e8d4a5100061083e868860000154611a7d90919063ffffffff16565b611b0390919063ffffffff16565b611c1490919063ffffffff16565b94505050505092915050565b6004818154811061087357fe5b90600052602060002090600402016000915090508060000160009054906101000a900473ffffffffffffffffffffffffffffffffffffffff16908060010154908060020154908060030154905084565b60065481565b6108d1611c97565b73ffffffffffffffffffffffffffffffffffffffff166108ef61160e565b73ffffffffffffffffffffffffffffffffffffffff1614610978576040517f08c379a00000000000000000000000000000000000000000000000000000000081526004018080602001828103825260208152602001807f4f776e61626c653a2063616c6c6572206973206e6f7420746865206f776e657281525060200191505060405180910390fd5b801561098757610986611216565b5b6000600754431161099a5760075461099c565b435b90506109b384600654611b8c90919063ffffffff16565b600681905550600460405180608001604052808573ffffffffffffffffffffffffffffffffffffffff1681526020018681526020018381526020016000815250908060018154018082558091505060019003906000526020600020906004020160009091909190915060008201518160000160006101000a81548173ffffffffffffffffffffffffffffffffffffffff021916908373ffffffffffffffffffffffffffffffffffffffff160217905550602082015181600101556040820151816002015560608201518160030155505050505050565b600060048381548110610a9857fe5b9060005260206000209060040201905060006005600085815260200190815260200160002060003373ffffffffffffffffffffffffffffffffffffffff1673ffffffffffffffffffffffffffffffffffffffff16815260200190815260200160002090508281600001541015610b76576040517f08c379a00000000000000000000000000000000000000000000000000000000081526004018080602001828103825260128152602001807f77697468647261773a206e6f7420676f6f64000000000000000000000000000081525060200191505060405180910390fd5b610b7f84610d98565b6000610bc98260010154610bbb64e8d4a51000610bad87600301548760000154611a7d90919063ffffffff16565b611b0390919063ffffffff16565b611c1490919063ffffffff16565b9050610bd53382611c9f565b610bec848360000154611c1490919063ffffffff16565b8260000181905550610c2664e8d4a51000610c1885600301548560000154611a7d90919063ffffffff16565b611b0390919063ffffffff16565b8260010181905550610c7d33858560000160009054906101000a900473ffffffffffffffffffffffffffffffffffffffff1673ffffffffffffffffffffffffffffffffffffffff16611f189092919063ffffffff16565b843373ffffffffffffffffffffffffffffffffffffffff167ff279e6a1f5e320cca91135676d9cb6e44ca8a08c0b88342bcdb1144f6511b568866040518082815260200191505060405180910390a35050505050565b610cdb611c97565b73ffffffffffffffffffffffffffffffffffffffff16610cf961160e565b73ffffffffffffffffffffffffffffffffffffffff1614610d82576040517f08c379a00000000000000000000000000000000000000000000000000000000081526004018080602001828103825260208152602001807f4f776e61626c653a2063616c6c6572206973206e6f7420746865206f776e657281525060200191505060405180910390fd5b8060038190555050565b60035481565b60075481565b600060048281548110610da757fe5b9060005260206000209060040201905080600201544311610dc857506110e1565b60008160000160009054906101000a900473ffffffffffffffffffffffffffffffffffffffff1673ffffffffffffffffffffffffffffffffffffffff166370a08231306040518263ffffffff1660e01b8152600401808273ffffffffffffffffffffffffffffffffffffffff16815260200191505060206040518083038186803b158015610e5557600080fd5b505afa158015610e69573d6000803e3d6000fd5b505050506040513d6020811015610e7f57600080fd5b810190808051906020019092919050505090506000811415610eab5743826002018190555050506110e1565b6000610ebb836002015443611637565b90506000610efe600654610ef08660010154610ee260035487611a7d90919063ffffffff16565b611a7d90919063ffffffff16565b611b0390919063ffffffff16565b9050600160009054906101000a900473ffffffffffffffffffffffffffffffffffffffff1673ffffffffffffffffffffffffffffffffffffffff166340c10f19600260009054906101000a900473ffffffffffffffffffffffffffffffffffffffff16610f75600a85611b0390919063ffffffff16565b6040518363ffffffff1660e01b8152600401808373ffffffffffffffffffffffffffffffffffffffff16815260200182815260200192505050600060405180830381600087803b158015610fc857600080fd5b505af1158015610fdc573d6000803e3d6000fd5b50505050600160009054906101000a900473ffffffffffffffffffffffffffffffffffffffff1673ffffffffffffffffffffffffffffffffffffffff166340c10f1930836040518363ffffffff1660e01b8152600401808373ffffffffffffffffffffffffffffffffffffffff16815260200182815260200192505050600060405180830381600087803b15801561107357600080fd5b505af1158015611087573d6000803e3d6000fd5b505050506110cb6110b8846110aa64e8d4a5100085611a7d90919063ffffffff16565b611b0390919063ffffffff16565b8560030154611b8c90919063ffffffff16565b8460030181905550438460020181905550505050505b50565b6000600482815481106110f357fe5b9060005260206000209060040201905060006005600084815260200190815260200160002060003373ffffffffffffffffffffffffffffffffffffffff1673ffffffffffffffffffffffffffffffffffffffff16815260200190815260200160002090506111aa3382600001548460000160009054906101000a900473ffffffffffffffffffffffffffffffffffffffff1673ffffffffffffffffffffffffffffffffffffffff16611f189092919063ffffffff16565b823373ffffffffffffffffffffffffffffffffffffffff167fbb757047c2b5f3974fe26b7c10f732e7bce710b0952a71082702781e62ae059583600001546040518082815260200191505060405180910390a36000816000018190555060008160010181905550505050565b6000600480549050905060005b8181101561123f5761123481610d98565b806001019050611223565b5050565b61124b611c97565b73ffffffffffffffffffffffffffffffffffffffff1661126961160e565b73ffffffffffffffffffffffffffffffffffffffff16146112f2576040517f08c379a00000000000000000000000000000000000000000000000000000000081526004018080602001828103825260208152602001807f4f776e61626c653a2063616c6c6572206973206e6f7420746865206f776e657281525060200191505060405180910390fd5b801561130157611300611216565b5b611346826113386004868154811061131557fe5b906000526020600020906004020160010154600654611c1490919063ffffffff16565b611b8c90919063ffffffff16565b600681905550816004848154811061135a57fe5b906000526020600020906004020160010181905550505050565b61137c611c97565b73ffffffffffffffffffffffffffffffffffffffff1661139a61160e565b73ffffffffffffffffffffffffffffffffffffffff1614611423576040517f08c379a00000000000000000000000000000000000000000000000000000000081526004018080602001828103825260208152602001807f4f776e61626c653a2063616c6c6572206973206e6f7420746865206f776e657281525060200191505060405180910390fd5b600073ffffffffffffffffffffffffffffffffffffffff1660008054906101000a900473ffffffffffffffffffffffffffffffffffffffff1673ffffffffffffffffffffffffffffffffffffffff167f8be0079c531659141344cd1fd0a4f28419497f9722a3daafe3b4186f6b6457e060405160405180910390a360008060006101000a81548173ffffffffffffffffffffffffffffffffffffffff021916908373ffffffffffffffffffffffffffffffffffffffff160217905550565b600160009054906101000a900473ffffffffffffffffffffffffffffffffffffffff1681565b600260009054906101000a900473ffffffffffffffffffffffffffffffffffffffff1673ffffffffffffffffffffffffffffffffffffffff163373ffffffffffffffffffffffffffffffffffffffff16146115ca576040517f08c379a00000000000000000000000000000000000000000000000000000000081526004018080602001828103825260098152602001807f6465763a207775743f000000000000000000000000000000000000000000000081525060200191505060405180910390fd5b80600260006101000a81548173ffffffffffffffffffffffffffffffffffffffff021916908373ffffffffffffffffffffffffffffffffffffffff16021790555050565b60008060009054906101000a900473ffffffffffffffffffffffffffffffffffffffff16905090565b600061164c8383611c1490919063ffffffff16565b905092915050565b6005602052816000526040600020602052806000526040600020600091509150508060000154908060010154905082565b600260009054906101000a900473ffffffffffffffffffffffffffffffffffffffff1681565b6000600483815481106116ba57fe5b9060005260206000209060040201905060006005600085815260200190815260200160002060003373ffffffffffffffffffffffffffffffffffffffff1673ffffffffffffffffffffffffffffffffffffffff168152602001908152602001600020905061172784610d98565b60008160000154111561178c57600061177e826001015461177064e8d4a5100061176287600301548760000154611a7d90919063ffffffff16565b611b0390919063ffffffff16565b611c1490919063ffffffff16565b905061178a3382611c9f565b505b6117dd3330858560000160009054906101000a900473ffffffffffffffffffffffffffffffffffffffff1673ffffffffffffffffffffffffffffffffffffffff16611fba909392919063ffffffff16565b6117f4838260000154611b8c90919063ffffffff16565b816000018190555061182e64e8d4a5100061182084600301548460000154611a7d90919063ffffffff16565b611b0390919063ffffffff16565b8160010181905550833373ffffffffffffffffffffffffffffffffffffffff167f90890809c654f11d6e72a28fa60149770a0d11ec6c92319d6ceb2bb0a4ea1a15856040518082815260200191505060405180910390a350505050565b611893611c97565b73ffffffffffffffffffffffffffffffffffffffff166118b161160e565b73ffffffffffffffffffffffffffffffffffffffff161461193a576040517f08c379a00000000000000000000000000000000000000000000000000000000081526004018080602001828103825260208152602001807f4f776e61626c653a2063616c6c6572206973206e6f7420746865206f776e657281525060200191505060405180910390fd5b600073ffffffffffffffffffffffffffffffffffffffff168173ffffffffffffffffffffffffffffffffffffffff1614156119c0576040517f08c379a000000000000000000000000000000000000000000000000000000000815260040180806020018281038252602681526020018061240b6026913960400191505060405180910390fd5b8073ffffffffffffffffffffffffffffffffffffffff1660008054906101000a900473ffffffffffffffffffffffffffffffffffffffff1673ffffffffffffffffffffffffffffffffffffffff167f8be0079c531659141344cd1fd0a4f28419497f9722a3daafe3b4186f6b6457e060405160405180910390a3806000806101000a81548173ffffffffffffffffffffffffffffffffffffffff021916908373ffffffffffffffffffffffffffffffffffffffff16021790555050565b600080831415611a905760009050611afd565b6000828402905082848281611aa157fe5b0414611af8576040517f08c379a00000000000000000000000000000000000000000000000000000000081526004018080602001828103825260218152602001806124576021913960400191505060405180910390fd5b809150505b92915050565b6000808211611b7a576040517f08c379a000000000000000000000000000000000000000000000000000000000815260040180806020018281038252601a8152602001807f536166654d6174683a206469766973696f6e206279207a65726f00000000000081525060200191505060405180910390fd5b818381611b8357fe5b04905092915050565b600080828401905083811015611c0a576040517f08c379a000000000000000000000000000000000000000000000000000000000815260040180806020018281038252601b8152602001807f536166654d6174683a206164646974696f6e206f766572666c6f77000000000081525060200191505060405180910390fd5b8091505092915050565b600082821115611c8c576040517f08c379a000000000000000000000000000000000000000000000000000000000815260040180806020018281038252601e8152602001807f536166654d6174683a207375627472616374696f6e206f766572666c6f77000081525060200191505060405180910390fd5b818303905092915050565b600033905090565b6000600160009054906101000a900473ffffffffffffffffffffffffffffffffffffffff1673ffffffffffffffffffffffffffffffffffffffff166370a08231306040518263ffffffff1660e01b8152600401808273ffffffffffffffffffffffffffffffffffffffff16815260200191505060206040518083038186803b158015611d2a57600080fd5b505afa158015611d3e573d6000803e3d6000fd5b505050506040513d6020811015611d5457600080fd5b8101908080519060200190929190505050905080821115611e4357600160009054906101000a900473ffffffffffffffffffffffffffffffffffffffff1673ffffffffffffffffffffffffffffffffffffffff1663a9059cbb84836040518363ffffffff1660e01b8152600401808373ffffffffffffffffffffffffffffffffffffffff16815260200182815260200192505050602060405180830381600087803b158015611e0257600080fd5b505af1158015611e16573d6000803e3d6000fd5b505050506040513d6020811015611e2c57600080fd5b810190808051906020019092919050505050611f13565b600160009054906101000a900473ffffffffffffffffffffffffffffffffffffffff1673ffffffffffffffffffffffffffffffffffffffff1663a9059cbb84846040518363ffffffff1660e01b8152600401808373ffffffffffffffffffffffffffffffffffffffff16815260200182815260200192505050602060405180830381600087803b158015611ed657600080fd5b505af1158015611eea573d6000803e3d6000fd5b505050506040513d6020811015611f0057600080fd5b8101908080519060200190929190505050505b505050565b611fb58363a9059cbb60e01b8484604051602401808373ffffffffffffffffffffffffffffffffffffffff16815260200182815260200192505050604051602081830303815290604052907bffffffffffffffffffffffffffffffffffffffffffffffffffffffff19166020820180517bffffffffffffffffffffffffffffffffffffffffffffffffffffffff838183161783525050505061207b565b505050565b612075846323b872dd60e01b858585604051602401808473ffffffffffffffffffffffffffffffffffffffff1681526020018373ffffffffffffffffffffffffffffffffffffffff1681526020018281526020019350505050604051602081830303815290604052907bffffffffffffffffffffffffffffffffffffffffffffffffffffffff19166020820180517bffffffffffffffffffffffffffffffffffffffffffffffffffffffff838183161783525050505061207b565b50505050565b60606120dd826040518060400160405280602081526020017f5361666545524332303a206c6f772d6c6576656c2063616c6c206661696c65648152508573ffffffffffffffffffffffffffffffffffffffff1661216a9092919063ffffffff16565b9050600081511115612165578080602001905160208110156120fe57600080fd5b8101908080519060200190929190505050612164576040517f08c379a000000000000000000000000000000000000000000000000000000000815260040180806020018281038252602a815260200180612478602a913960400191505060405180910390fd5b5b505050565b60606121798484600085612182565b90509392505050565b6060824710156121dd576040517f08c379a00000000000000000000000000000000000000000000000000000000081526004018080602001828103825260268152602001806124316026913960400191505060405180910390fd5b6121e68561232b565b612258576040517f08c379a000000000000000000000000000000000000000000000000000000000815260040180806020018281038252601d8152602001807f416464726573733a2063616c6c20746f206e6f6e2d636f6e747261637400000081525060200191505060405180910390fd5b600060608673ffffffffffffffffffffffffffffffffffffffff1685876040518082805190602001908083835b602083106122a85780518252602082019150602081019050602083039250612285565b6001836020036101000a03801982511681845116808217855250505050505090500191505060006040518083038185875af1925050503d806000811461230a576040519150601f19603f3d011682016040523d82523d6000602084013e61230f565b606091505b509150915061231f82828661233e565b92505050949350505050565b600080823b905060008111915050919050565b6060831561234e57829050612403565b6000835111156123615782518084602001fd5b816040517f08c379a00000000000000000000000000000000000000000000000000000000081526004018080602001828103825283818151815260200191508051906020019080838360005b838110156123c85780820151818401526020810190506123ad565b50505050905090810190601f1680156123f55780820380516001836020036101000a031916815260200191505b509250505060405180910390fd5b939250505056fe4f776e61626c653a206e6577206f776e657220697320746865207a65726f2061646472657373416464726573733a20696e73756666696369656e742062616c616e636520666f722063616c6c536166654d6174683a206d756c7469706c69636174696f6e206f766572666c6f775361666545524332303a204552433230206f7065726174696f6e20646964206e6f742073756363656564a2646970667358221220d008768e16fef91451014a0b00702ba7bb090ba7224406ea06827fca5923612264736f6c634300060c0033",
  "linkReferences": {},
  "deployedLinkReferences": {}
}