{
  "_format": "hh-sol-artifact-1",
  "contractName": "MasterChef",
  "sourceName": "contracts/MasterChef.sol",
  "abi": [
    {
      "inputs": [
        {
          "internalType": "contract KingKongToken",
          "name": "_kkt",
          "type": "address"
        },
        {
          "internalType": "address",
          "name": "_devaddr",
          "type": "address"
        },
        {
          "internalType": "address",
          "name": "_opeaddr",
          "type": "address"
        },
        {
          "internalType": "uint256",
          "name": "_kktPerBlock",
          "type": "uint256"
        },
        {
          "internalType": "uint256",
          "name": "_startBlock",
          "type": "uint256"
        }
      ],
      "stateMutability": "nonpayable",
      "type": "constructor"
    },
    {
      "anonymous": false,
      "inputs": [
        {
          "indexed": true,
          "internalType": "address",
          "name": "user",
          "type": "address"
        },
        {
          "indexed": true,
          "internalType": "uint256",
          "name": "pid",
          "type": "uint256"
        },
        {
          "indexed": false,
          "internalType": "uint256",
          "name": "amount",
          "type": "uint256"
        }
      ],
      "name": "Deposit",
      "type": "event"
    },
    {
      "anonymous": false,
      "inputs": [
        {
          "indexed": true,
          "internalType": "address",
          "name": "user",
          "type": "address"
        },
        {
          "indexed": true,
          "internalType": "uint256",
          "name": "pid",
          "type": "uint256"
        },
        {
          "indexed": false,
          "internalType": "uint256",
          "name": "amount",
          "type": "uint256"
        }
      ],
      "name": "EmergencyWithdraw",
      "type": "event"
    },
    {
      "anonymous": false,
      "inputs": [
        {
          "indexed": true,
          "internalType": "address",
          "name": "previousOwner",
          "type": "address"
        },
        {
          "indexed": true,
          "internalType": "address",
          "name": "newOwner",
          "type": "address"
        }
      ],
      "name": "OwnershipTransferred",
      "type": "event"
    },
    {
      "anonymous": false,
      "inputs": [
        {
          "indexed": true,
          "internalType": "address",
          "name": "user",
          "type": "address"
        },
        {
          "indexed": true,
          "internalType": "uint256",
          "name": "pid",
          "type": "uint256"
        },
        {
          "indexed": false,
          "internalType": "uint256",
          "name": "amount",
          "type": "uint256"
        }
      ],
      "name": "Withdraw",
      "type": "event"
    },
    {
      "inputs": [
        {
          "internalType": "uint256",
          "name": "_allocPoint",
          "type": "uint256"
        },
        {
          "internalType": "contract IERC20",
          "name": "_lpToken",
          "type": "address"
        },
        {
          "internalType": "bool",
          "name": "_withUpdate",
          "type": "bool"
        }
      ],
      "name": "add",
      "outputs": [],
      "stateMutability": "nonpayable",
      "type": "function"
    },
    {
      "inputs": [
        {
          "internalType": "uint256",
          "name": "_pid",
          "type": "uint256"
        },
        {
          "internalType": "uint256",
          "name": "_amount",
          "type": "uint256"
        }
      ],
      "name": "deposit",
      "outputs": [],
      "stateMutability": "nonpayable",
      "type": "function"
    },
    {
      "inputs": [
        {
          "internalType": "address",
          "name": "_devaddr",
          "type": "address"
        }
      ],
      "name": "dev",
      "outputs": [],
      "stateMutability": "nonpayable",
      "type": "function"
    },
    {
      "inputs": [],
      "name": "devaddr",
      "outputs": [
        {
          "internalType": "address",
          "name": "",
          "type": "address"
        }
      ],
      "stateMutability": "view",
      "type": "function"
    },
    {
      "inputs": [
        {
          "internalType": "uint256",
          "name": "_pid",
          "type": "uint256"
        }
      ],
      "name": "emergencyWithdraw",
      "outputs": [],
      "stateMutability": "nonpayable",
      "type": "function"
    },
    {
      "inputs": [
        {
          "internalType": "uint256",
          "name": "_from",
          "type": "uint256"
        },
        {
          "internalType": "uint256",
          "name": "_to",
          "type": "uint256"
        }
      ],
      "name": "getMultiplier",
      "outputs": [
        {
          "internalType": "uint256",
          "name": "",
          "type": "uint256"
        }
      ],
      "stateMutability": "pure",
      "type": "function"
    },
    {
      "inputs": [],
      "name": "kkt",
      "outputs": [
        {
          "internalType": "contract KingKongToken",
          "name": "",
          "type": "address"
        }
      ],
      "stateMutability": "view",
      "type": "function"
    },
    {
      "inputs": [],
      "name": "kktPerBlock",
      "outputs": [
        {
          "internalType": "uint256",
          "name": "",
          "type": "uint256"
        }
      ],
      "stateMutability": "view",
      "type": "function"
    },
    {
      "inputs": [],
      "name": "massUpdatePools",
      "outputs": [],
      "stateMutability": "nonpayable",
      "type": "function"
    },
    {
      "inputs": [
        {
          "internalType": "address",
          "name": "_opeaddr",
          "type": "address"
        }
      ],
      "name": "ope",
      "outputs": [],
      "stateMutability": "nonpayable",
      "type": "function"
    },
    {
      "inputs": [],
      "name": "opeaddr",
      "outputs": [
        {
          "internalType": "address",
          "name": "",
          "type": "address"
        }
      ],
      "stateMutability": "view",
      "type": "function"
    },
    {
      "inputs": [],
      "name": "owner",
      "outputs": [
        {
          "internalType": "address",
          "name": "",
          "type": "address"
        }
      ],
      "stateMutability": "view",
      "type": "function"
    },
    {
      "inputs": [
        {
          "internalType": "uint256",
          "name": "_pid",
          "type": "uint256"
        },
        {
          "internalType": "address",
          "name": "_user",
          "type": "address"
        }
      ],
      "name": "pendingKKT",
      "outputs": [
        {
          "internalType": "uint256",
          "name": "",
          "type": "uint256"
        }
      ],
      "stateMutability": "view",
      "type": "function"
    },
    {
      "inputs": [
        {
          "internalType": "uint256",
          "name": "",
          "type": "uint256"
        }
      ],
      "name": "poolInfo",
      "outputs": [
        {
          "internalType": "contract IERC20",
          "name": "lpToken",
          "type": "address"
        },
        {
          "internalType": "uint256",
          "name": "allocPoint",
          "type": "uint256"
        },
        {
          "internalType": "uint256",
          "name": "lastRewardBlock",
          "type": "uint256"
        },
        {
          "internalType": "uint256",
          "name": "accKKTPerShare",
          "type": "uint256"
        }
      ],
      "stateMutability": "view",
      "type": "function"
    },
    {
      "inputs": [],
      "name": "poolLength",
      "outputs": [
        {
          "internalType": "uint256",
          "name": "",
          "type": "uint256"
        }
      ],
      "stateMutability": "view",
      "type": "function"
    },
    {
      "inputs": [],
      "name": "renounceOwnership",
      "outputs": [],
      "stateMutability": "nonpayable",
      "type": "function"
    },
    {
      "inputs": [
        {
          "internalType": "uint256",
          "name": "_pid",
          "type": "uint256"
        },
        {
          "internalType": "uint256",
          "name": "_allocPoint",
          "type": "uint256"
        },
        {
          "internalType": "bool",
          "name": "_withUpdate",
          "type": "bool"
        }
      ],
      "name": "set",
      "outputs": [],
      "stateMutability": "nonpayable",
      "type": "function"
    },
    {
      "inputs": [
        {
          "internalType": "uint256",
          "name": "_kktPerBlock",
          "type": "uint256"
        }
      ],
      "name": "setKKTPerBlock",
      "outputs": [],
      "stateMutability": "nonpayable",
      "type": "function"
    },
    {
      "inputs": [],
      "name": "startBlock",
      "outputs": [
        {
          "internalType": "uint256",
          "name": "",
          "type": "uint256"
        }
      ],
      "stateMutability": "view",
      "type": "function"
    },
    {
      "inputs": [],
      "name": "totalAllocPoint",
      "outputs": [
        {
          "internalType": "uint256",
          "name": "",
          "type": "uint256"
        }
      ],
      "stateMutability": "view",
      "type": "function"
    },
    {
      "inputs": [
        {
          "internalType": "address",
          "name": "newOwner",
          "type": "address"
        }
      ],
      "name": "transferOwnership",
      "outputs": [],
      "stateMutability": "nonpayable",
      "type": "function"
    },
    {
      "inputs": [
        {
          "internalType": "uint256",
          "name": "_pid",
          "type": "uint256"
        }
      ],
      "name": "updatePool",
      "outputs": [],
      "stateMutability": "nonpayable",
      "type": "function"
    },
    {
      "inputs": [
        {
          "internalType": "uint256",
          "name": "",
          "type": "uint256"
        },
        {
          "internalType": "address",
          "name": "",
          "type": "address"
        }
      ],
      "name": "userInfo",
      "outputs": [
        {
          "internalType": "uint256",
          "name": "amount",
          "type": "uint256"
        },
        {
          "internalType": "uint256",
          "name": "rewardDebt",
          "type": "uint256"
        }
      ],
      "stateMutability": "view",
      "type": "function"
    },
    {
      "inputs": [
        {
          "internalType": "uint256",
          "name": "_pid",
          "type": "uint256"
        },
        {
          "internalType": "uint256",
          "name": "_amount",
          "type": "uint256"
        }
      ],
      "name": "withdraw",
      "outputs": [],
      "stateMutability": "nonpayable",
      "type": "function"
    }
  ],
  "bytecode": "0x6080604052600060075534801561001557600080fd5b506040516119ed3803806119ed833981810160405260a081101561003857600080fd5b5080516020820151604083015160608401516080909401519293919290919060006100616100f7565b600080546001600160a01b0319166001600160a01b0383169081178255604051929350917f8be0079c531659141344cd1fd0a4f28419497f9722a3daafe3b4186f6b6457e0908290a350600180546001600160a01b03199081166001600160a01b0397881617909155600280548216958716959095179094556003805490941692909416919091179091556004556008556100fb565b3390565b6118e38061010a6000396000f3fe608060405234801561001057600080fd5b50600436106101585760003560e01c8063630b5ba1116100c35780638dbb1e3a1161007c5780638dbb1e3a1461036b57806393f1a40b1461038e578063d49e77cd146103d3578063e2bbb158146103db578063eb320fc1146103fe578063f2fde38b1461040657610158565b8063630b5ba1146102de57806364482f79146102e6578063715018a6146103115780638c577b19146103195780638d88a90e1461033d5780638da5cb5b1461036357610158565b80634532e25c116101155780634532e25c14610251578063480f38b21461026e57806348cd4cb11461027657806351eb05a61461027e5780635312ea8e1461029b578063600f647d146102b857610158565b8063081e3eda1461015d5780630ffb16f9146101775780631526fe27146101a357806317caf6f1146101f05780631eaaa045146101f8578063441a3e701461022e575b600080fd5b61016561042c565b60408051918252519081900360200190f35b6101656004803603604081101561018d57600080fd5b50803590602001356001600160a01b0316610432565b6101c0600480360360208110156101b957600080fd5b50356105a8565b604080516001600160a01b0390951685526020850193909352838301919091526060830152519081900360800190f35b6101656105e9565b61022c6004803603606081101561020e57600080fd5b508035906001600160a01b03602082013516906040013515156105ef565b005b61022c6004803603604081101561024457600080fd5b5080359060200135610774565b61022c6004803603602081101561026757600080fd5b50356108bb565b610165610922565b610165610928565b61022c6004803603602081101561029457600080fd5b503561092e565b61022c600480360360208110156102b157600080fd5b5035610bd1565b61022c600480360360208110156102ce57600080fd5b50356001600160a01b0316610c6c565b61022c610cd9565b61022c600480360360608110156102fc57600080fd5b50803590602081013590604001351515610cfc565b61022c610dd7565b610321610e83565b604080516001600160a01b039092168252519081900360200190f35b61022c6004803603602081101561035357600080fd5b50356001600160a01b0316610e92565b610321610eff565b6101656004803603604081101561038157600080fd5b5080359060200135610f0e565b6103ba600480360360408110156103a457600080fd5b50803590602001356001600160a01b0316610f21565b6040805192835260208301919091528051918290030190f35b610321610f45565b61022c600480360360408110156103f157600080fd5b5080359060200135610f54565b610321611059565b61022c6004803603602081101561041c57600080fd5b50356001600160a01b0316611068565b60055490565b6000806005848154811061044257fe5b600091825260208083208784526006825260408085206001600160a01b03898116875290845281862060049586029093016003810154815484516370a0823160e01b81523098810198909852935191985093969395939492909116926370a08231926024808301939192829003018186803b1580156104c057600080fd5b505afa1580156104d4573d6000803e3d6000fd5b505050506040513d60208110156104ea57600080fd5b505160028501549091504311801561050157508015155b1561056d576000610516856002015443610f0e565b90506000610549600754610543886001015461053d6004548761116a90919063ffffffff16565b9061116a565b906111c3565b9050610568610561846105438464e8d4a5100061116a565b859061122a565b935050505b61059b836001015461059564e8d4a5100061054386886000015461116a90919063ffffffff16565b90611284565b9450505050505b92915050565b600581815481106105b557fe5b600091825260209091206004909102018054600182015460028301546003909301546001600160a01b039092169350919084565b60075481565b6105f76112e1565b6001600160a01b0316610608610eff565b6001600160a01b031614610651576040805162461bcd60e51b81526020600482018190526024820152600080516020611864833981519152604482015290519081900360640190fd5b801561065f5761065f610cd9565b6000600854431161067257600854610674565b435b600754909150610684908561122a565b600755604080516080810182526001600160a01b0394851681526020810195865290810191825260006060820181815260058054600181018255925291517f036b6384b5eca791c62761152d0c79bb0604c104a5fb6f4eb0703f3154bb3db0600490920291820180546001600160a01b031916919096161790945593517f036b6384b5eca791c62761152d0c79bb0604c104a5fb6f4eb0703f3154bb3db1840155517f036b6384b5eca791c62761152d0c79bb0604c104a5fb6f4eb0703f3154bb3db28301555090517f036b6384b5eca791c62761152d0c79bb0604c104a5fb6f4eb0703f3154bb3db390910155565b60006005838154811061078357fe5b6000918252602080832086845260068252604080852033865290925292208054600490920290920192508311156107f6576040805162461bcd60e51b81526020600482015260126024820152711dda5d1a191c985dce881b9bdd0819dbdbd960721b604482015290519081900360640190fd5b6107ff8461092e565b600061082d826001015461059564e8d4a510006105438760030154876000015461116a90919063ffffffff16565b905061083933826112e5565b81546108459085611284565b80835560038401546108629164e8d4a5100091610543919061116a565b6001830155825461087d906001600160a01b03163386611476565b604080518581529051869133917ff279e6a1f5e320cca91135676d9cb6e44ca8a08c0b88342bcdb1144f6511b5689181900360200190a35050505050565b6108c36112e1565b6001600160a01b03166108d4610eff565b6001600160a01b03161461091d576040805162461bcd60e51b81526020600482018190526024820152600080516020611864833981519152604482015290519081900360640190fd5b600455565b60045481565b60085481565b60006005828154811061093d57fe5b906000526020600020906004020190508060020154431161095e5750610bce565b8054604080516370a0823160e01b815230600482015290516000926001600160a01b0316916370a08231916024808301926020929190829003018186803b1580156109a857600080fd5b505afa1580156109bc573d6000803e3d6000fd5b505050506040513d60208110156109d257600080fd5b50519050806109e8575043600290910155610bce565b60006109f8836002015443610f0e565b90506000610a1f600754610543866001015461053d6004548761116a90919063ffffffff16565b6001546003549192506001600160a01b03908116916340c10f199116610a468460056111c3565b6040518363ffffffff1660e01b815260040180836001600160a01b0316815260200182815260200192505050600060405180830381600087803b158015610a8c57600080fd5b505af1158015610aa0573d6000803e3d6000fd5b50506001546002546001600160a01b0391821693506340c10f19925016610ac884600a6111c3565b6040518363ffffffff1660e01b815260040180836001600160a01b0316815260200182815260200192505050600060405180830381600087803b158015610b0e57600080fd5b505af1158015610b22573d6000803e3d6000fd5b5050600154604080516340c10f1960e01b81523060048201526024810186905290516001600160a01b0390921693506340c10f19925060448082019260009290919082900301818387803b158015610b7957600080fd5b505af1158015610b8d573d6000803e3d6000fd5b50505050610bbb610bb08461054364e8d4a510008561116a90919063ffffffff16565b60038601549061122a565b6003850155505043600290920191909155505b50565b600060058281548110610be057fe5b60009182526020808320858452600682526040808520338087529352909320805460049093029093018054909450610c25926001600160a01b03919091169190611476565b80546040805191825251849133917fbb757047c2b5f3974fe26b7c10f732e7bce710b0952a71082702781e62ae05959181900360200190a360008082556001909101555050565b6003546001600160a01b03163314610cb7576040805162461bcd60e51b81526020600482015260096024820152686f70653a207775743f60b81b604482015290519081900360640190fd5b600380546001600160a01b0319166001600160a01b0392909216919091179055565b60055460005b81811015610cf857610cf08161092e565b600101610cdf565b5050565b610d046112e1565b6001600160a01b0316610d15610eff565b6001600160a01b031614610d5e576040805162461bcd60e51b81526020600482018190526024820152600080516020611864833981519152604482015290519081900360640190fd5b8015610d6c57610d6c610cd9565b610da982610da360058681548110610d8057fe5b90600052602060002090600402016001015460075461128490919063ffffffff16565b9061122a565b6007819055508160058481548110610dbd57fe5b906000526020600020906004020160010181905550505050565b610ddf6112e1565b6001600160a01b0316610df0610eff565b6001600160a01b031614610e39576040805162461bcd60e51b81526020600482018190526024820152600080516020611864833981519152604482015290519081900360640190fd5b600080546040516001600160a01b03909116907f8be0079c531659141344cd1fd0a4f28419497f9722a3daafe3b4186f6b6457e0908390a3600080546001600160a01b0319169055565b6001546001600160a01b031681565b6002546001600160a01b03163314610edd576040805162461bcd60e51b81526020600482015260096024820152686465763a207775743f60b81b604482015290519081900360640190fd5b600280546001600160a01b0319166001600160a01b0392909216919091179055565b6000546001600160a01b031690565b6000610f1a8284611284565b9392505050565b60066020908152600092835260408084209091529082529020805460019091015482565b6002546001600160a01b031681565b600060058381548110610f6357fe5b60009182526020808320868452600682526040808520338652909252922060049091029091019150610f948461092e565b805415610fd7576000610fc9826001015461059564e8d4a510006105438760030154876000015461116a90919063ffffffff16565b9050610fd533826112e5565b505b8154610fee906001600160a01b03163330866114c8565b8054610ffa908461122a565b80825560038301546110179164e8d4a5100091610543919061116a565b6001820155604080518481529051859133917f90890809c654f11d6e72a28fa60149770a0d11ec6c92319d6ceb2bb0a4ea1a159181900360200190a350505050565b6003546001600160a01b031681565b6110706112e1565b6001600160a01b0316611081610eff565b6001600160a01b0316146110ca576040805162461bcd60e51b81526020600482018190526024820152600080516020611864833981519152604482015290519081900360640190fd5b6001600160a01b03811661110f5760405162461bcd60e51b81526004018080602001828103825260268152602001806117f76026913960400191505060405180910390fd5b600080546040516001600160a01b03808516939216917f8be0079c531659141344cd1fd0a4f28419497f9722a3daafe3b4186f6b6457e091a3600080546001600160a01b0319166001600160a01b0392909216919091179055565b600082611179575060006105a2565b8282028284828161118657fe5b0414610f1a5760405162461bcd60e51b81526004018080602001828103825260218152602001806118436021913960400191505060405180910390fd5b6000808211611219576040805162461bcd60e51b815260206004820152601a60248201527f536166654d6174683a206469766973696f6e206279207a65726f000000000000604482015290519081900360640190fd5b81838161122257fe5b049392505050565b600082820183811015610f1a576040805162461bcd60e51b815260206004820152601b60248201527f536166654d6174683a206164646974696f6e206f766572666c6f770000000000604482015290519081900360640190fd5b6000828211156112db576040805162461bcd60e51b815260206004820152601e60248201527f536166654d6174683a207375627472616374696f6e206f766572666c6f770000604482015290519081900360640190fd5b50900390565b3390565b600154604080516370a0823160e01b815230600482015290516000926001600160a01b0316916370a08231916024808301926020929190829003018186803b15801561133057600080fd5b505afa158015611344573d6000803e3d6000fd5b505050506040513d602081101561135a57600080fd5b50519050808211156113ee576001546040805163a9059cbb60e01b81526001600160a01b038681166004830152602482018590529151919092169163a9059cbb9160448083019260209291908290030181600087803b1580156113bc57600080fd5b505af11580156113d0573d6000803e3d6000fd5b505050506040513d60208110156113e657600080fd5b506114719050565b6001546040805163a9059cbb60e01b81526001600160a01b038681166004830152602482018690529151919092169163a9059cbb9160448083019260209291908290030181600087803b15801561144457600080fd5b505af1158015611458573d6000803e3d6000fd5b505050506040513d602081101561146e57600080fd5b50505b505050565b604080516001600160a01b038416602482015260448082018490528251808303909101815260649091019091526020810180516001600160e01b031663a9059cbb60e01b179052611471908490611528565b604080516001600160a01b0380861660248301528416604482015260648082018490528251808303909101815260849091019091526020810180516001600160e01b03166323b872dd60e01b179052611522908590611528565b50505050565b606061157d826040518060400160405280602081526020017f5361666545524332303a206c6f772d6c6576656c2063616c6c206661696c6564815250856001600160a01b03166115d99092919063ffffffff16565b8051909150156114715780806020019051602081101561159c57600080fd5b50516114715760405162461bcd60e51b815260040180806020018281038252602a815260200180611884602a913960400191505060405180910390fd5b60606115e884846000856115f0565b949350505050565b6060824710156116315760405162461bcd60e51b815260040180806020018281038252602681526020018061181d6026913960400191505060405180910390fd5b61163a8561174c565b61168b576040805162461bcd60e51b815260206004820152601d60248201527f416464726573733a2063616c6c20746f206e6f6e2d636f6e7472616374000000604482015290519081900360640190fd5b60006060866001600160a01b031685876040518082805190602001908083835b602083106116ca5780518252601f1990920191602091820191016116ab565b6001836020036101000a03801982511681845116808217855250505050505090500191505060006040518083038185875af1925050503d806000811461172c576040519150601f19603f3d011682016040523d82523d6000602084013e611731565b606091505b5091509150611741828286611752565b979650505050505050565b3b151590565b60608315611761575081610f1a565b8251156117715782518084602001fd5b8160405162461bcd60e51b81526004018080602001828103825283818151815260200191508051906020019080838360005b838110156117bb5781810151838201526020016117a3565b50505050905090810190601f1680156117e85780820380516001836020036101000a031916815260200191505b509250505060405180910390fdfe4f776e61626c653a206e6577206f776e657220697320746865207a65726f2061646472657373416464726573733a20696e73756666696369656e742062616c616e636520666f722063616c6c536166654d6174683a206d756c7469706c69636174696f6e206f766572666c6f774f776e61626c653a2063616c6c6572206973206e6f7420746865206f776e65725361666545524332303a204552433230206f7065726174696f6e20646964206e6f742073756363656564a2646970667358221220d67451a3382606a5f3a54d783cb8a80ff81e73848135459df89714d1e4c7d50364736f6c634300060c0033",
  "linkReferences": {},
  "deployedLinkReferences": {}
}